{"bytecode":"608060405234801561001057600080fd5b5061102e806100206000396000f3fe608060405234801561001057600080fd5b50600436106100885760003560e01c806395cfdb8f1161005b57806395cfdb8f146100fe578063c3f6994d14610111578063cc37109a14610124578063db8dc0591461013757600080fd5b80631ac1cc8b1461008d5780634ad63b26146100a25780635d808b61146100cb5780638825213d146100de575b600080fd5b6100a061009b366004610c3f565b61016e565b005b6100b56100b0366004610d08565b610256565b6040516100c29190610d82565b60405180910390f35b6100a06100d9366004610d95565b610302565b6100f16100ec366004610d08565b610421565b6040516100c29190610dd2565b6100f161010c366004610d08565b6106de565b6100a061011f366004610d95565b610990565b6100a0610132366004610e8e565b6109ae565b610160610145366004610d08565b6001600160a01b031660009081526002602052604090205490565b6040519081526020016100c2565b8260018560405161017f9190610eca565b908152602001604051809103902090805190602001906101a0929190610ac6565b50336000908152600260209081526040808320815160808101835287815280840189905291820186905260608201859052805460018101825590845292829020815180519294600402909101926101fc92849290910190610ac6565b5060208281015180516102159260018501920190610ac6565b5060408201518051610231916002840191602090910190610ac6565b506060820151805161024d916003840191602090910190610ac6565b50505050505050565b6001600160a01b038116600090815260208190526040902080546060919061027d90610ee6565b80601f01602080910402602001604051908101604052809291908181526020018280546102a990610ee6565b80156102f65780601f106102cb576101008083540402835291602001916102f6565b820191906000526020600020905b8154815290600101906020018083116102d957829003601f168201915b50505050509050919050565b60005b3360009081526002602052604090205481101561041d5733600090815260026020526040902080548290811061033d5761033d610f20565b906000526020600020906004020160010160405160200161035e9190610f36565b60405160208183030381529060405280519060200120826040516020016103859190610eca565b604051602081830303815290604052805190602001200361040b573360009081526002602052604090208054829081106103c1576103c1610f20565b600091825260208220600490910201906103db8282610b4a565b6103e9600183016000610b4a565b6103f7600283016000610b4a565b610405600383016000610b4a565b50505050565b8061041581610fd1565b915050610305565b5050565b6001600160a01b0381166000908152600360209081526040808320805482518185028101850190935280835260609492939192909184015b828210156106d3578382906000526020600020906004020160405180608001604052908160008201805461048c90610ee6565b80601f01602080910402602001604051908101604052809291908181526020018280546104b890610ee6565b80156105055780601f106104da57610100808354040283529160200191610505565b820191906000526020600020905b8154815290600101906020018083116104e857829003601f168201915b5050505050815260200160018201805461051e90610ee6565b80601f016020809104026020016040519081016040528092919081815260200182805461054a90610ee6565b80156105975780601f1061056c57610100808354040283529160200191610597565b820191906000526020600020905b81548152906001019060200180831161057a57829003601f168201915b505050505081526020016002820180546105b090610ee6565b80601f01602080910402602001604051908101604052809291908181526020018280546105dc90610ee6565b80156106295780601f106105fe57610100808354040283529160200191610629565b820191906000526020600020905b81548152906001019060200180831161060c57829003601f168201915b5050505050815260200160038201805461064290610ee6565b80601f016020809104026020016040519081016040528092919081815260200182805461066e90610ee6565b80156106bb5780601f10610690576101008083540402835291602001916106bb565b820191906000526020600020905b81548152906001019060200180831161069e57829003601f168201915b50505050508152505081526020019060010190610459565b505050509050919050565b6001600160a01b0381166000908152600260209081526040808320805482518185028101850190935280835260609492939192909184015b828210156106d3578382906000526020600020906004020160405180608001604052908160008201805461074990610ee6565b80601f016020809104026020016040519081016040528092919081815260200182805461077590610ee6565b80156107c25780601f10610797576101008083540402835291602001916107c2565b820191906000526020600020905b8154815290600101906020018083116107a557829003601f168201915b505050505081526020016001820180546107db90610ee6565b80601f016020809104026020016040519081016040528092919081815260200182805461080790610ee6565b80156108545780601f1061082957610100808354040283529160200191610854565b820191906000526020600020905b81548152906001019060200180831161083757829003601f168201915b5050505050815260200160028201805461086d90610ee6565b80601f016020809104026020016040519081016040528092919081815260200182805461089990610ee6565b80156108e65780601f106108bb576101008083540402835291602001916108e6565b820191906000526020600020905b8154815290600101906020018083116108c957829003601f168201915b505050505081526020016003820180546108ff90610ee6565b80601f016020809104026020016040519081016040528092919081815260200182805461092b90610ee6565b80156109785780601f1061094d57610100808354040283529160200191610978565b820191906000526020600020905b81548152906001019060200180831161095b57829003601f168201915b50505050508152505081526020019060010190610716565b33600090815260208181526040909120825161041d92840190610ac6565b60036000856001600160a01b03166001600160a01b0316815260200190815260200160002060405180608001604052806001866040516109ee9190610eca565b90815260200160405180910390208054610a0790610ee6565b80601f0160208091040260200160405190810160405280929190818152602001828054610a3390610ee6565b8015610a805780601f10610a5557610100808354040283529160200191610a80565b820191906000526020600020905b815481529060010190602001808311610a6357829003601f168201915b505050918352505060208082018790526040820186905260609091018490528254600181018455600093845292819020825180519394600402909101926101fc92849201905b828054610ad290610ee6565b90600052602060002090601f016020900481019282610af45760008555610b3a565b82601f10610b0d57805160ff1916838001178555610b3a565b82800160010185558215610b3a579182015b82811115610b3a578251825591602001919060010190610b1f565b50610b46929150610b87565b5090565b508054610b5690610ee6565b6000825580601f10610b66575050565b601f016020900490600052602060002090810190610b849190610b87565b50565b5b80821115610b465760008155600101610b88565b634e487b7160e01b600052604160045260246000fd5b600082601f830112610bc357600080fd5b813567ffffffffffffffff80821115610bde57610bde610b9c565b604051601f8301601f19908116603f01168101908282118183101715610c0657610c06610b9c565b81604052838152866020858801011115610c1f57600080fd5b836020870160208301376000602085830101528094505050505092915050565b60008060008060808587031215610c5557600080fd5b843567ffffffffffffffff80821115610c6d57600080fd5b610c7988838901610bb2565b95506020870135915080821115610c8f57600080fd5b610c9b88838901610bb2565b94506040870135915080821115610cb157600080fd5b610cbd88838901610bb2565b93506060870135915080821115610cd357600080fd5b50610ce087828801610bb2565b91505092959194509250565b80356001600160a01b0381168114610d0357600080fd5b919050565b600060208284031215610d1a57600080fd5b610d2382610cec565b9392505050565b60005b83811015610d45578181015183820152602001610d2d565b838111156104055750506000910152565b60008151808452610d6e816020860160208601610d2a565b601f01601f19169290920160200192915050565b602081526000610d236020830184610d56565b600060208284031215610da757600080fd5b813567ffffffffffffffff811115610dbe57600080fd5b610dca84828501610bb2565b949350505050565b60006020808301818452808551808352604092508286019150828160051b87010184880160005b83811015610e8057603f19898403018552815160808151818652610e1f82870182610d56565b915050888201518582038a870152610e378282610d56565b9150508782015185820389870152610e4f8282610d56565b91505060608083015192508582038187015250610e6c8183610d56565b968901969450505090860190600101610df9565b509098975050505050505050565b60008060008060808587031215610ea457600080fd5b610ead85610cec565b9350602085013567ffffffffffffffff80821115610c8f57600080fd5b60008251610edc818460208701610d2a565b9190910192915050565b600181811c90821680610efa57607f821691505b602082108103610f1a57634e487b7160e01b600052602260045260246000fd5b50919050565b634e487b7160e01b600052603260045260246000fd5b600080835481600182811c915080831680610f5257607f831692505b60208084108203610f7157634e487b7160e01b86526022600452602486fd5b818015610f855760018114610f9657610fc3565b60ff19861689528489019650610fc3565b60008a81526020902060005b86811015610fbb5781548b820152908501908301610fa2565b505084890196505b509498975050505050505050565b600060018201610ff157634e487b7160e01b600052601160045260246000fd5b506001019056fea26469706673582212206ec9df1bf48196ca73e389431765a1d970adc914685c4d98036c9bf4c8d99b0464736f6c634300080e0033","bytecodeSha1":"b336e2c58922373c0aef2c3ec7a8dec7a06de1de","type":"contract","abi":[{"inputs":[{"internalType":"string","name":"cids","type":"string"},{"internalType":"string","name":"name","type":"string"},{"internalType":"string","name":"key","type":"string"},{"internalType":"string","name":"iv","type":"string"}],"name":"addcid","outputs":[],"stateMutability":"nonpayable","type":"function"},{"inputs":[{"internalType":"string","name":"publicke","type":"string"}],"name":"addpublickey","outputs":[],"stateMutability":"nonpayable","type":"function"},{"inputs":[{"internalType":"address","name":"useraccount","type":"address"}],"name":"getlength","outputs":[{"internalType":"uint256","name":"","type":"uint256"}],"stateMutability":"view","type":"function"},{"inputs":[{"internalType":"address","name":"acc","type":"address"}],"name":"getpublickey","outputs":[{"internalType":"string","name":"","type":"string"}],"stateMutability":"view","type":"function"},{"inputs":[{"internalType":"address","name":"useraccount","type":"address"}],"name":"getsharedwithuser","outputs":[{"components":[{"internalType":"string","name":"name","type":"string"},{"internalType":"string","name":"CID","type":"string"},{"internalType":"string","name":"key","type":"string"},{"internalType":"string","name":"iv","type":"string"}],"internalType":"struct privateupload.File[]","name":"","type":"tuple[]"}],"stateMutability":"view","type":"function"},{"inputs":[{"internalType":"address","name":"useraccount","type":"address"}],"name":"getusercid","outputs":[{"components":[{"internalType":"string","name":"name","type":"string"},{"internalType":"string","name":"CID","type":"string"},{"internalType":"string","name":"key","type":"string"},{"internalType":"string","name":"iv","type":"string"}],"internalType":"struct privateupload.File[]","name":"","type":"tuple[]"}],"stateMutability":"view","type":"function"},{"inputs":[{"internalType":"string","name":"cids","type":"string"}],"name":"removecid","outputs":[],"stateMutability":"nonpayable","type":"function"},{"inputs":[{"internalType":"address","name":"user","type":"address"},{"internalType":"string","name":"cids","type":"string"},{"internalType":"string","name":"pekey","type":"string"},{"internalType":"string","name":"iv","type":"string"}],"name":"sharewithother","outputs":[],"stateMutability":"nonpayable","type":"function"}],"compiler":{"version":"0.8.14+commit.80d49f37","evm_version":"istanbul","optimizer":{"enabled":true,"runs":200}},"contractName":"privateupload","language":"Solidity","natspec":{"methods":{},"kind":"dev","version":1},"opcodes":"PUSH1 0x80 PUSH1 0x40 MSTORE CALLVALUE DUP1 ISZERO PUSH2 0x10 JUMPI PUSH1 0x0 DUP1 REVERT JUMPDEST POP PUSH1 0x4 CALLDATASIZE LT PUSH2 0x88 JUMPI PUSH1 0x0 CALLDATALOAD PUSH1 0xE0 SHR DUP1 PUSH4 0x95CFDB8F GT PUSH2 0x5B JUMPI DUP1 PUSH4 0x95CFDB8F EQ PUSH2 0xFE JUMPI DUP1 PUSH4 0xC3F6994D EQ PUSH2 0x111 JUMPI DUP1 PUSH4 0xCC37109A EQ PUSH2 0x124 JUMPI DUP1 PUSH4 0xDB8DC059 EQ PUSH2 0x137 JUMPI PUSH1 0x0 DUP1 REVERT JUMPDEST DUP1 PUSH4 0x1AC1CC8B EQ PUSH2 0x8D JUMPI DUP1 PUSH4 0x4AD63B26 EQ PUSH2 0xA2 JUMPI DUP1 PUSH4 0x5D808B61 EQ PUSH2 0xCB JUMPI DUP1 PUSH4 0x8825213D EQ PUSH2 0xDE JUMPI JUMPDEST PUSH1 0x0 DUP1 REVERT JUMPDEST PUSH2 0xA0 PUSH2 0x9B CALLDATASIZE PUSH1 0x4 PUSH2 0xC3F JUMP JUMPDEST PUSH2 0x16E JUMP JUMPDEST STOP JUMPDEST PUSH2 0xB5 PUSH2 0xB0 CALLDATASIZE PUSH1 0x4 PUSH2 0xD08 JUMP JUMPDEST PUSH2 0x256 JUMP JUMPDEST PUSH1 0x40 MLOAD PUSH2 0xC2 SWAP2 SWAP1 PUSH2 0xD82 JUMP JUMPDEST PUSH1 0x40 MLOAD DUP1 SWAP2 SUB SWAP1 RETURN JUMPDEST PUSH2 0xA0 PUSH2 0xD9 CALLDATASIZE PUSH1 0x4 PUSH2 0xD95 JUMP JUMPDEST PUSH2 0x302 JUMP JUMPDEST PUSH2 0xF1 PUSH2 0xEC CALLDATASIZE PUSH1 0x4 PUSH2 0xD08 JUMP JUMPDEST PUSH2 0x421 JUMP JUMPDEST PUSH1 0x40 MLOAD PUSH2 0xC2 SWAP2 SWAP1 PUSH2 0xDD2 JUMP JUMPDEST PUSH2 0xF1 PUSH2 0x10C CALLDATASIZE PUSH1 0x4 PUSH2 0xD08 JUMP JUMPDEST PUSH2 0x6DE JUMP JUMPDEST PUSH2 0xA0 PUSH2 0x11F CALLDATASIZE PUSH1 0x4 PUSH2 0xD95 JUMP JUMPDEST PUSH2 0x990 JUMP JUMPDEST PUSH2 0xA0 PUSH2 0x132 CALLDATASIZE PUSH1 0x4 PUSH2 0xE8E JUMP JUMPDEST PUSH2 0x9AE JUMP JUMPDEST PUSH2 0x160 PUSH2 0x145 CALLDATASIZE PUSH1 0x4 PUSH2 0xD08 JUMP JUMPDEST PUSH1 0x1 PUSH1 0x1 PUSH1 0xA0 SHL SUB AND PUSH1 0x0 SWAP1 DUP2 MSTORE PUSH1 0x2 PUSH1 0x20 MSTORE PUSH1 0x40 SWAP1 KECCAK256 SLOAD SWAP1 JUMP JUMPDEST PUSH1 0x40 MLOAD SWAP1 DUP2 MSTORE PUSH1 0x20 ADD PUSH2 0xC2 JUMP JUMPDEST DUP3 PUSH1 0x1 DUP6 PUSH1 0x40 MLOAD PUSH2 0x17F SWAP2 SWAP1 PUSH2 0xECA JUMP JUMPDEST SWAP1 DUP2 MSTORE PUSH1 0x20 ADD PUSH1 0x40 MLOAD DUP1 SWAP2 SUB SWAP1 KECCAK256 SWAP1 DUP1 MLOAD SWAP1 PUSH1 0x20 ADD SWAP1 PUSH2 0x1A0 SWAP3 SWAP2 SWAP1 PUSH2 0xAC6 JUMP JUMPDEST POP CALLER PUSH1 0x0 SWAP1 DUP2 MSTORE PUSH1 0x2 PUSH1 0x20 SWAP1 DUP2 MSTORE PUSH1 0x40 DUP1 DUP4 KECCAK256 DUP2 MLOAD PUSH1 0x80 DUP2 ADD DUP4 MSTORE DUP8 DUP2 MSTORE DUP1 DUP5 ADD DUP10 SWAP1 MSTORE SWAP2 DUP3 ADD DUP7 SWAP1 MSTORE PUSH1 0x60 DUP3 ADD DUP6 SWAP1 MSTORE DUP1 SLOAD PUSH1 0x1 DUP2 ADD DUP3 SSTORE SWAP1 DUP5 MSTORE SWAP3 DUP3 SWAP1 KECCAK256 DUP2 MLOAD DUP1 MLOAD SWAP3 SWAP5 PUSH1 0x4 MUL SWAP1 SWAP2 ADD SWAP3 PUSH2 0x1FC SWAP3 DUP5 SWAP3 SWAP1 SWAP2 ADD SWAP1 PUSH2 0xAC6 JUMP JUMPDEST POP PUSH1 0x20 DUP3 DUP2 ADD MLOAD DUP1 MLOAD PUSH2 0x215 SWAP3 PUSH1 0x1 DUP6 ADD SWAP3 ADD SWAP1 PUSH2 0xAC6 JUMP JUMPDEST POP PUSH1 0x40 DUP3 ADD MLOAD DUP1 MLOAD PUSH2 0x231 SWAP2 PUSH1 0x2 DUP5 ADD SWAP2 PUSH1 0x20 SWAP1 SWAP2 ADD SWAP1 PUSH2 0xAC6 JUMP JUMPDEST POP PUSH1 0x60 DUP3 ADD MLOAD DUP1 MLOAD PUSH2 0x24D SWAP2 PUSH1 0x3 DUP5 ADD SWAP2 PUSH1 0x20 SWAP1 SWAP2 ADD SWAP1 PUSH2 0xAC6 JUMP JUMPDEST POP POP POP POP POP POP POP JUMP JUMPDEST PUSH1 0x1 PUSH1 0x1 PUSH1 0xA0 SHL SUB DUP2 AND PUSH1 0x0 SWAP1 DUP2 MSTORE PUSH1 0x20 DUP2 SWAP1 MSTORE PUSH1 0x40 SWAP1 KECCAK256 DUP1 SLOAD PUSH1 0x60 SWAP2 SWAP1 PUSH2 0x27D SWAP1 PUSH2 0xEE6 JUMP JUMPDEST DUP1 PUSH1 0x1F ADD PUSH1 0x20 DUP1 SWAP2 DIV MUL PUSH1 0x20 ADD PUSH1 0x40 MLOAD SWAP1 DUP2 ADD PUSH1 0x40 MSTORE DUP1 SWAP3 SWAP2 SWAP1 DUP2 DUP2 MSTORE PUSH1 0x20 ADD DUP3 DUP1 SLOAD PUSH2 0x2A9 SWAP1 PUSH2 0xEE6 JUMP JUMPDEST DUP1 ISZERO PUSH2 0x2F6 JUMPI DUP1 PUSH1 0x1F LT PUSH2 0x2CB JUMPI PUSH2 0x100 DUP1 DUP4 SLOAD DIV MUL DUP4 MSTORE SWAP2 PUSH1 0x20 ADD SWAP2 PUSH2 0x2F6 JUMP JUMPDEST DUP3 ADD SWAP2 SWAP1 PUSH1 0x0 MSTORE PUSH1 0x20 PUSH1 0x0 KECCAK256 SWAP1 JUMPDEST DUP2 SLOAD DUP2 MSTORE SWAP1 PUSH1 0x1 ADD SWAP1 PUSH1 0x20 ADD DUP1 DUP4 GT PUSH2 0x2D9 JUMPI DUP3 SWAP1 SUB PUSH1 0x1F AND DUP3 ADD SWAP2 JUMPDEST POP POP POP POP POP SWAP1 POP SWAP2 SWAP1 POP JUMP JUMPDEST PUSH1 0x0 JUMPDEST CALLER PUSH1 0x0 SWAP1 DUP2 MSTORE PUSH1 0x2 PUSH1 0x20 MSTORE PUSH1 0x40 SWAP1 KECCAK256 SLOAD DUP2 LT ISZERO PUSH2 0x41D JUMPI CALLER PUSH1 0x0 SWAP1 DUP2 MSTORE PUSH1 0x2 PUSH1 0x20 MSTORE PUSH1 0x40 SWAP1 KECCAK256 DUP1 SLOAD DUP3 SWAP1 DUP2 LT PUSH2 0x33D JUMPI PUSH2 0x33D PUSH2 0xF20 JUMP JUMPDEST SWAP1 PUSH1 0x0 MSTORE PUSH1 0x20 PUSH1 0x0 KECCAK256 SWAP1 PUSH1 0x4 MUL ADD PUSH1 0x1 ADD PUSH1 0x40 MLOAD PUSH1 0x20 ADD PUSH2 0x35E SWAP2 SWAP1 PUSH2 0xF36 JUMP JUMPDEST PUSH1 0x40 MLOAD PUSH1 0x20 DUP2 DUP4 SUB SUB DUP2 MSTORE SWAP1 PUSH1 0x40 MSTORE DUP1 MLOAD SWAP1 PUSH1 0x20 ADD KECCAK256 DUP3 PUSH1 0x40 MLOAD PUSH1 0x20 ADD PUSH2 0x385 SWAP2 SWAP1 PUSH2 0xECA JUMP JUMPDEST PUSH1 0x40 MLOAD PUSH1 0x20 DUP2 DUP4 SUB SUB DUP2 MSTORE SWAP1 PUSH1 0x40 MSTORE DUP1 MLOAD SWAP1 PUSH1 0x20 ADD KECCAK256 SUB PUSH2 0x40B JUMPI CALLER PUSH1 0x0 SWAP1 DUP2 MSTORE PUSH1 0x2 PUSH1 0x20 MSTORE PUSH1 0x40 SWAP1 KECCAK256 DUP1 SLOAD DUP3 SWAP1 DUP2 LT PUSH2 0x3C1 JUMPI PUSH2 0x3C1 PUSH2 0xF20 JUMP JUMPDEST PUSH1 0x0 SWAP2 DUP3 MSTORE PUSH1 0x20 DUP3 KECCAK256 PUSH1 0x4 SWAP1 SWAP2 MUL ADD SWAP1 PUSH2 0x3DB DUP3 DUP3 PUSH2 0xB4A JUMP JUMPDEST PUSH2 0x3E9 PUSH1 0x1 DUP4 ADD PUSH1 0x0 PUSH2 0xB4A JUMP JUMPDEST PUSH2 0x3F7 PUSH1 0x2 DUP4 ADD PUSH1 0x0 PUSH2 0xB4A JUMP JUMPDEST PUSH2 0x405 PUSH1 0x3 DUP4 ADD PUSH1 0x0 PUSH2 0xB4A JUMP JUMPDEST POP POP POP POP JUMP JUMPDEST DUP1 PUSH2 0x415 DUP2 PUSH2 0xFD1 JUMP JUMPDEST SWAP2 POP POP PUSH2 0x305 JUMP JUMPDEST POP POP JUMP JUMPDEST PUSH1 0x1 PUSH1 0x1 PUSH1 0xA0 SHL SUB DUP2 AND PUSH1 0x0 SWAP1 DUP2 MSTORE PUSH1 0x3 PUSH1 0x20 SWAP1 DUP2 MSTORE PUSH1 0x40 DUP1 DUP4 KECCAK256 DUP1 SLOAD DUP3 MLOAD DUP2 DUP6 MUL DUP2 ADD DUP6 ADD SWAP1 SWAP4 MSTORE DUP1 DUP4 MSTORE PUSH1 0x60 SWAP5 SWAP3 SWAP4 SWAP2 SWAP3 SWAP1 SWAP2 DUP5 ADD JUMPDEST DUP3 DUP3 LT ISZERO PUSH2 0x6D3 JUMPI DUP4 DUP3 SWAP1 PUSH1 0x0 MSTORE PUSH1 0x20 PUSH1 0x0 KECCAK256 SWAP1 PUSH1 0x4 MUL ADD PUSH1 0x40 MLOAD DUP1 PUSH1 0x80 ADD PUSH1 0x40 MSTORE SWAP1 DUP2 PUSH1 0x0 DUP3 ADD DUP1 SLOAD PUSH2 0x48C SWAP1 PUSH2 0xEE6 JUMP JUMPDEST DUP1 PUSH1 0x1F ADD PUSH1 0x20 DUP1 SWAP2 DIV MUL PUSH1 0x20 ADD PUSH1 0x40 MLOAD SWAP1 DUP2 ADD PUSH1 0x40 MSTORE DUP1 SWAP3 SWAP2 SWAP1 DUP2 DUP2 MSTORE PUSH1 0x20 ADD DUP3 DUP1 SLOAD PUSH2 0x4B8 SWAP1 PUSH2 0xEE6 JUMP JUMPDEST DUP1 ISZERO PUSH2 0x505 JUMPI DUP1 PUSH1 0x1F LT PUSH2 0x4DA JUMPI PUSH2 0x100 DUP1 DUP4 SLOAD DIV MUL DUP4 MSTORE SWAP2 PUSH1 0x20 ADD SWAP2 PUSH2 0x505 JUMP JUMPDEST DUP3 ADD SWAP2 SWAP1 PUSH1 0x0 MSTORE PUSH1 0x20 PUSH1 0x0 KECCAK256 SWAP1 JUMPDEST DUP2 SLOAD DUP2 MSTORE SWAP1 PUSH1 0x1 ADD SWAP1 PUSH1 0x20 ADD DUP1 DUP4 GT PUSH2 0x4E8 JUMPI DUP3 SWAP1 SUB PUSH1 0x1F AND DUP3 ADD SWAP2 JUMPDEST POP POP POP POP POP DUP2 MSTORE PUSH1 0x20 ADD PUSH1 0x1 DUP3 ADD DUP1 SLOAD PUSH2 0x51E SWAP1 PUSH2 0xEE6 JUMP JUMPDEST DUP1 PUSH1 0x1F ADD PUSH1 0x20 DUP1 SWAP2 DIV MUL PUSH1 0x20 ADD PUSH1 0x40 MLOAD SWAP1 DUP2 ADD PUSH1 0x40 MSTORE DUP1 SWAP3 SWAP2 SWAP1 DUP2 DUP2 MSTORE PUSH1 0x20 ADD DUP3 DUP1 SLOAD PUSH2 0x54A SWAP1 PUSH2 0xEE6 JUMP JUMPDEST DUP1 ISZERO PUSH2 0x597 JUMPI DUP1 PUSH1 0x1F LT PUSH2 0x56C JUMPI PUSH2 0x100 DUP1 DUP4 SLOAD DIV MUL DUP4 MSTORE SWAP2 PUSH1 0x20 ADD SWAP2 PUSH2 0x597 JUMP JUMPDEST DUP3 ADD SWAP2 SWAP1 PUSH1 0x0 MSTORE PUSH1 0x20 PUSH1 0x0 KECCAK256 SWAP1 JUMPDEST DUP2 SLOAD DUP2 MSTORE SWAP1 PUSH1 0x1 ADD SWAP1 PUSH1 0x20 ADD DUP1 DUP4 GT PUSH2 0x57A JUMPI DUP3 SWAP1 SUB PUSH1 0x1F AND DUP3 ADD SWAP2 JUMPDEST POP POP POP POP POP DUP2 MSTORE PUSH1 0x20 ADD PUSH1 0x2 DUP3 ADD DUP1 SLOAD PUSH2 0x5B0 SWAP1 PUSH2 0xEE6 JUMP JUMPDEST DUP1 PUSH1 0x1F ADD PUSH1 0x20 DUP1 SWAP2 DIV MUL PUSH1 0x20 ADD PUSH1 0x40 MLOAD SWAP1 DUP2 ADD PUSH1 0x40 MSTORE DUP1 SWAP3 SWAP2 SWAP1 DUP2 DUP2 MSTORE PUSH1 0x20 ADD DUP3 DUP1 SLOAD PUSH2 0x5DC SWAP1 PUSH2 0xEE6 JUMP JUMPDEST DUP1 ISZERO PUSH2 0x629 JUMPI DUP1 PUSH1 0x1F LT PUSH2 0x5FE JUMPI PUSH2 0x100 DUP1 DUP4 SLOAD DIV MUL DUP4 MSTORE SWAP2 PUSH1 0x20 ADD SWAP2 PUSH2 0x629 JUMP JUMPDEST DUP3 ADD SWAP2 SWAP1 PUSH1 0x0 MSTORE PUSH1 0x20 PUSH1 0x0 KECCAK256 SWAP1 JUMPDEST DUP2 SLOAD DUP2 MSTORE SWAP1 PUSH1 0x1 ADD SWAP1 PUSH1 0x20 ADD DUP1 DUP4 GT PUSH2 0x60C JUMPI DUP3 SWAP1 SUB PUSH1 0x1F AND DUP3 ADD SWAP2 JUMPDEST POP POP POP POP POP DUP2 MSTORE PUSH1 0x20 ADD PUSH1 0x3 DUP3 ADD DUP1 SLOAD PUSH2 0x642 SWAP1 PUSH2 0xEE6 JUMP JUMPDEST DUP1 PUSH1 0x1F ADD PUSH1 0x20 DUP1 SWAP2 DIV MUL PUSH1 0x20 ADD PUSH1 0x40 MLOAD SWAP1 DUP2 ADD PUSH1 0x40 MSTORE DUP1 SWAP3 SWAP2 SWAP1 DUP2 DUP2 MSTORE PUSH1 0x20 ADD DUP3 DUP1 SLOAD PUSH2 0x66E SWAP1 PUSH2 0xEE6 JUMP JUMPDEST DUP1 ISZERO PUSH2 0x6BB JUMPI DUP1 PUSH1 0x1F LT PUSH2 0x690 JUMPI PUSH2 0x100 DUP1 DUP4 SLOAD DIV MUL DUP4 MSTORE SWAP2 PUSH1 0x20 ADD SWAP2 PUSH2 0x6BB JUMP JUMPDEST DUP3 ADD SWAP2 SWAP1 PUSH1 0x0 MSTORE PUSH1 0x20 PUSH1 0x0 KECCAK256 SWAP1 JUMPDEST DUP2 SLOAD DUP2 MSTORE SWAP1 PUSH1 0x1 ADD SWAP1 PUSH1 0x20 ADD DUP1 DUP4 GT PUSH2 0x69E JUMPI DUP3 SWAP1 SUB PUSH1 0x1F AND DUP3 ADD SWAP2 JUMPDEST POP POP POP POP POP DUP2 MSTORE POP POP DUP2 MSTORE PUSH1 0x20 ADD SWAP1 PUSH1 0x1 ADD SWAP1 PUSH2 0x459 JUMP JUMPDEST POP POP POP POP SWAP1 POP SWAP2 SWAP1 POP JUMP JUMPDEST PUSH1 0x1 PUSH1 0x1 PUSH1 0xA0 SHL SUB DUP2 AND PUSH1 0x0 SWAP1 DUP2 MSTORE PUSH1 0x2 PUSH1 0x20 SWAP1 DUP2 MSTORE PUSH1 0x40 DUP1 DUP4 KECCAK256 DUP1 SLOAD DUP3 MLOAD DUP2 DUP6 MUL DUP2 ADD DUP6 ADD SWAP1 SWAP4 MSTORE DUP1 DUP4 MSTORE PUSH1 0x60 SWAP5 SWAP3 SWAP4 SWAP2 SWAP3 SWAP1 SWAP2 DUP5 ADD JUMPDEST DUP3 DUP3 LT ISZERO PUSH2 0x6D3 JUMPI DUP4 DUP3 SWAP1 PUSH1 0x0 MSTORE PUSH1 0x20 PUSH1 0x0 KECCAK256 SWAP1 PUSH1 0x4 MUL ADD PUSH1 0x40 MLOAD DUP1 PUSH1 0x80 ADD PUSH1 0x40 MSTORE SWAP1 DUP2 PUSH1 0x0 DUP3 ADD DUP1 SLOAD PUSH2 0x749 SWAP1 PUSH2 0xEE6 JUMP JUMPDEST DUP1 PUSH1 0x1F ADD PUSH1 0x20 DUP1 SWAP2 DIV MUL PUSH1 0x20 ADD PUSH1 0x40 MLOAD SWAP1 DUP2 ADD PUSH1 0x40 MSTORE DUP1 SWAP3 SWAP2 SWAP1 DUP2 DUP2 MSTORE PUSH1 0x20 ADD DUP3 DUP1 SLOAD PUSH2 0x775 SWAP1 PUSH2 0xEE6 JUMP JUMPDEST DUP1 ISZERO PUSH2 0x7C2 JUMPI DUP1 PUSH1 0x1F LT PUSH2 0x797 JUMPI PUSH2 0x100 DUP1 DUP4 SLOAD DIV MUL DUP4 MSTORE SWAP2 PUSH1 0x20 ADD SWAP2 PUSH2 0x7C2 JUMP JUMPDEST DUP3 ADD SWAP2 SWAP1 PUSH1 0x0 MSTORE PUSH1 0x20 PUSH1 0x0 KECCAK256 SWAP1 JUMPDEST DUP2 SLOAD DUP2 MSTORE SWAP1 PUSH1 0x1 ADD SWAP1 PUSH1 0x20 ADD DUP1 DUP4 GT PUSH2 0x7A5 JUMPI DUP3 SWAP1 SUB PUSH1 0x1F AND DUP3 ADD SWAP2 JUMPDEST POP POP POP POP POP DUP2 MSTORE PUSH1 0x20 ADD PUSH1 0x1 DUP3 ADD DUP1 SLOAD PUSH2 0x7DB SWAP1 PUSH2 0xEE6 JUMP JUMPDEST DUP1 PUSH1 0x1F ADD PUSH1 0x20 DUP1 SWAP2 DIV MUL PUSH1 0x20 ADD PUSH1 0x40 MLOAD SWAP1 DUP2 ADD PUSH1 0x40 MSTORE DUP1 SWAP3 SWAP2 SWAP1 DUP2 DUP2 MSTORE PUSH1 0x20 ADD DUP3 DUP1 SLOAD PUSH2 0x807 SWAP1 PUSH2 0xEE6 JUMP JUMPDEST DUP1 ISZERO PUSH2 0x854 JUMPI DUP1 PUSH1 0x1F LT PUSH2 0x829 JUMPI PUSH2 0x100 DUP1 DUP4 SLOAD DIV MUL DUP4 MSTORE SWAP2 PUSH1 0x20 ADD SWAP2 PUSH2 0x854 JUMP JUMPDEST DUP3 ADD SWAP2 SWAP1 PUSH1 0x0 MSTORE PUSH1 0x20 PUSH1 0x0 KECCAK256 SWAP1 JUMPDEST DUP2 SLOAD DUP2 MSTORE SWAP1 PUSH1 0x1 ADD SWAP1 PUSH1 0x20 ADD DUP1 DUP4 GT PUSH2 0x837 JUMPI DUP3 SWAP1 SUB PUSH1 0x1F AND DUP3 ADD SWAP2 JUMPDEST POP POP POP POP POP DUP2 MSTORE PUSH1 0x20 ADD PUSH1 0x2 DUP3 ADD DUP1 SLOAD PUSH2 0x86D SWAP1 PUSH2 0xEE6 JUMP JUMPDEST DUP1 PUSH1 0x1F ADD PUSH1 0x20 DUP1 SWAP2 DIV MUL PUSH1 0x20 ADD PUSH1 0x40 MLOAD SWAP1 DUP2 ADD PUSH1 0x40 MSTORE DUP1 SWAP3 SWAP2 SWAP1 DUP2 DUP2 MSTORE PUSH1 0x20 ADD DUP3 DUP1 SLOAD PUSH2 0x899 SWAP1 PUSH2 0xEE6 JUMP JUMPDEST DUP1 ISZERO PUSH2 0x8E6 JUMPI DUP1 PUSH1 0x1F LT PUSH2 0x8BB JUMPI PUSH2 0x100 DUP1 DUP4 SLOAD DIV MUL DUP4 MSTORE SWAP2 PUSH1 0x20 ADD SWAP2 PUSH2 0x8E6 JUMP JUMPDEST DUP3 ADD SWAP2 SWAP1 PUSH1 0x0 MSTORE PUSH1 0x20 PUSH1 0x0 KECCAK256 SWAP1 JUMPDEST DUP2 SLOAD DUP2 MSTORE SWAP1 PUSH1 0x1 ADD SWAP1 PUSH1 0x20 ADD DUP1 DUP4 GT PUSH2 0x8C9 JUMPI DUP3 SWAP1 SUB PUSH1 0x1F AND DUP3 ADD SWAP2 JUMPDEST POP POP POP POP POP DUP2 MSTORE PUSH1 0x20 ADD PUSH1 0x3 DUP3 ADD DUP1 SLOAD PUSH2 0x8FF SWAP1 PUSH2 0xEE6 JUMP JUMPDEST DUP1 PUSH1 0x1F ADD PUSH1 0x20 DUP1 SWAP2 DIV MUL PUSH1 0x20 ADD PUSH1 0x40 MLOAD SWAP1 DUP2 ADD PUSH1 0x40 MSTORE DUP1 SWAP3 SWAP2 SWAP1 DUP2 DUP2 MSTORE PUSH1 0x20 ADD DUP3 DUP1 SLOAD PUSH2 0x92B SWAP1 PUSH2 0xEE6 JUMP JUMPDEST DUP1 ISZERO PUSH2 0x978 JUMPI DUP1 PUSH1 0x1F LT PUSH2 0x94D JUMPI PUSH2 0x100 DUP1 DUP4 SLOAD DIV MUL DUP4 MSTORE SWAP2 PUSH1 0x20 ADD SWAP2 PUSH2 0x978 JUMP JUMPDEST DUP3 ADD SWAP2 SWAP1 PUSH1 0x0 MSTORE PUSH1 0x20 PUSH1 0x0 KECCAK256 SWAP1 JUMPDEST DUP2 SLOAD DUP2 MSTORE SWAP1 PUSH1 0x1 ADD SWAP1 PUSH1 0x20 ADD DUP1 DUP4 GT PUSH2 0x95B JUMPI DUP3 SWAP1 SUB PUSH1 0x1F AND DUP3 ADD SWAP2 JUMPDEST POP POP POP POP POP DUP2 MSTORE POP POP DUP2 MSTORE PUSH1 0x20 ADD SWAP1 PUSH1 0x1 ADD SWAP1 PUSH2 0x716 JUMP JUMPDEST CALLER PUSH1 0x0 SWAP1 DUP2 MSTORE PUSH1 0x20 DUP2 DUP2 MSTORE PUSH1 0x40 SWAP1 SWAP2 KECCAK256 DUP3 MLOAD PUSH2 0x41D SWAP3 DUP5 ADD SWAP1 PUSH2 0xAC6 JUMP JUMPDEST PUSH1 0x3 PUSH1 0x0 DUP6 PUSH1 0x1 PUSH1 0x1 PUSH1 0xA0 SHL SUB AND PUSH1 0x1 PUSH1 0x1 PUSH1 0xA0 SHL SUB AND DUP2 MSTORE PUSH1 0x20 ADD SWAP1 DUP2 MSTORE PUSH1 0x20 ADD PUSH1 0x0 KECCAK256 PUSH1 0x40 MLOAD DUP1 PUSH1 0x80 ADD PUSH1 0x40 MSTORE DUP1 PUSH1 0x1 DUP7 PUSH1 0x40 MLOAD PUSH2 0x9EE SWAP2 SWAP1 PUSH2 0xECA JUMP JUMPDEST SWAP1 DUP2 MSTORE PUSH1 0x20 ADD PUSH1 0x40 MLOAD DUP1 SWAP2 SUB SWAP1 KECCAK256 DUP1 SLOAD PUSH2 0xA07 SWAP1 PUSH2 0xEE6 JUMP JUMPDEST DUP1 PUSH1 0x1F ADD PUSH1 0x20 DUP1 SWAP2 DIV MUL PUSH1 0x20 ADD PUSH1 0x40 MLOAD SWAP1 DUP2 ADD PUSH1 0x40 MSTORE DUP1 SWAP3 SWAP2 SWAP1 DUP2 DUP2 MSTORE PUSH1 0x20 ADD DUP3 DUP1 SLOAD PUSH2 0xA33 SWAP1 PUSH2 0xEE6 JUMP JUMPDEST DUP1 ISZERO PUSH2 0xA80 JUMPI DUP1 PUSH1 0x1F LT PUSH2 0xA55 JUMPI PUSH2 0x100 DUP1 DUP4 SLOAD DIV MUL DUP4 MSTORE SWAP2 PUSH1 0x20 ADD SWAP2 PUSH2 0xA80 JUMP JUMPDEST DUP3 ADD SWAP2 SWAP1 PUSH1 0x0 MSTORE PUSH1 0x20 PUSH1 0x0 KECCAK256 SWAP1 JUMPDEST DUP2 SLOAD DUP2 MSTORE SWAP1 PUSH1 0x1 ADD SWAP1 PUSH1 0x20 ADD DUP1 DUP4 GT PUSH2 0xA63 JUMPI DUP3 SWAP1 SUB PUSH1 0x1F AND DUP3 ADD SWAP2 JUMPDEST POP POP POP SWAP2 DUP4 MSTORE POP POP PUSH1 0x20 DUP1 DUP3 ADD DUP8 SWAP1 MSTORE PUSH1 0x40 DUP3 ADD DUP7 SWAP1 MSTORE PUSH1 0x60 SWAP1 SWAP2 ADD DUP5 SWAP1 MSTORE DUP3 SLOAD PUSH1 0x1 DUP2 ADD DUP5 SSTORE PUSH1 0x0 SWAP4 DUP5 MSTORE SWAP3 DUP2 SWAP1 KECCAK256 DUP3 MLOAD DUP1 MLOAD SWAP4 SWAP5 PUSH1 0x4 MUL SWAP1 SWAP2 ADD SWAP3 PUSH2 0x1FC SWAP3 DUP5 SWAP3 ADD SWAP1 JUMPDEST DUP3 DUP1 SLOAD PUSH2 0xAD2 SWAP1 PUSH2 0xEE6 JUMP JUMPDEST SWAP1 PUSH1 0x0 MSTORE PUSH1 0x20 PUSH1 0x0 KECCAK256 SWAP1 PUSH1 0x1F ADD PUSH1 0x20 SWAP1 DIV DUP2 ADD SWAP3 DUP3 PUSH2 0xAF4 JUMPI PUSH1 0x0 DUP6 SSTORE PUSH2 0xB3A JUMP JUMPDEST DUP3 PUSH1 0x1F LT PUSH2 0xB0D JUMPI DUP1 MLOAD PUSH1 0xFF NOT AND DUP4 DUP1 ADD OR DUP6 SSTORE PUSH2 0xB3A JUMP JUMPDEST DUP3 DUP1 ADD PUSH1 0x1 ADD DUP6 SSTORE DUP3 ISZERO PUSH2 0xB3A JUMPI SWAP2 DUP3 ADD JUMPDEST DUP3 DUP2 GT ISZERO PUSH2 0xB3A JUMPI DUP3 MLOAD DUP3 SSTORE SWAP2 PUSH1 0x20 ADD SWAP2 SWAP1 PUSH1 0x1 ADD SWAP1 PUSH2 0xB1F JUMP JUMPDEST POP PUSH2 0xB46 SWAP3 SWAP2 POP PUSH2 0xB87 JUMP JUMPDEST POP SWAP1 JUMP JUMPDEST POP DUP1 SLOAD PUSH2 0xB56 SWAP1 PUSH2 0xEE6 JUMP JUMPDEST PUSH1 0x0 DUP3 SSTORE DUP1 PUSH1 0x1F LT PUSH2 0xB66 JUMPI POP POP JUMP JUMPDEST PUSH1 0x1F ADD PUSH1 0x20 SWAP1 DIV SWAP1 PUSH1 0x0 MSTORE PUSH1 0x20 PUSH1 0x0 KECCAK256 SWAP1 DUP2 ADD SWAP1 PUSH2 0xB84 SWAP2 SWAP1 PUSH2 0xB87 JUMP JUMPDEST POP JUMP JUMPDEST JUMPDEST DUP1 DUP3 GT ISZERO PUSH2 0xB46 JUMPI PUSH1 0x0 DUP2 SSTORE PUSH1 0x1 ADD PUSH2 0xB88 JUMP JUMPDEST PUSH4 0x4E487B71 PUSH1 0xE0 SHL PUSH1 0x0 MSTORE PUSH1 0x41 PUSH1 0x4 MSTORE PUSH1 0x24 PUSH1 0x0 REVERT JUMPDEST PUSH1 0x0 DUP3 PUSH1 0x1F DUP4 ADD SLT PUSH2 0xBC3 JUMPI PUSH1 0x0 DUP1 REVERT JUMPDEST DUP2 CALLDATALOAD PUSH8 0xFFFFFFFFFFFFFFFF DUP1 DUP3 GT ISZERO PUSH2 0xBDE JUMPI PUSH2 0xBDE PUSH2 0xB9C JUMP JUMPDEST PUSH1 0x40 MLOAD PUSH1 0x1F DUP4 ADD PUSH1 0x1F NOT SWAP1 DUP2 AND PUSH1 0x3F ADD AND DUP2 ADD SWAP1 DUP3 DUP3 GT DUP2 DUP4 LT OR ISZERO PUSH2 0xC06 JUMPI PUSH2 0xC06 PUSH2 0xB9C JUMP JUMPDEST DUP2 PUSH1 0x40 MSTORE DUP4 DUP2 MSTORE DUP7 PUSH1 0x20 DUP6 DUP9 ADD ADD GT ISZERO PUSH2 0xC1F JUMPI PUSH1 0x0 DUP1 REVERT JUMPDEST DUP4 PUSH1 0x20 DUP8 ADD PUSH1 0x20 DUP4 ADD CALLDATACOPY PUSH1 0x0 PUSH1 0x20 DUP6 DUP4 ADD ADD MSTORE DUP1 SWAP5 POP POP POP POP POP SWAP3 SWAP2 POP POP JUMP JUMPDEST PUSH1 0x0 DUP1 PUSH1 0x0 DUP1 PUSH1 0x80 DUP6 DUP8 SUB SLT ISZERO PUSH2 0xC55 JUMPI PUSH1 0x0 DUP1 REVERT JUMPDEST DUP5 CALLDATALOAD PUSH8 0xFFFFFFFFFFFFFFFF DUP1 DUP3 GT ISZERO PUSH2 0xC6D JUMPI PUSH1 0x0 DUP1 REVERT JUMPDEST PUSH2 0xC79 DUP9 DUP4 DUP10 ADD PUSH2 0xBB2 JUMP JUMPDEST SWAP6 POP PUSH1 0x20 DUP8 ADD CALLDATALOAD SWAP2 POP DUP1 DUP3 GT ISZERO PUSH2 0xC8F JUMPI PUSH1 0x0 DUP1 REVERT JUMPDEST PUSH2 0xC9B DUP9 DUP4 DUP10 ADD PUSH2 0xBB2 JUMP JUMPDEST SWAP5 POP PUSH1 0x40 DUP8 ADD CALLDATALOAD SWAP2 POP DUP1 DUP3 GT ISZERO PUSH2 0xCB1 JUMPI PUSH1 0x0 DUP1 REVERT JUMPDEST PUSH2 0xCBD DUP9 DUP4 DUP10 ADD PUSH2 0xBB2 JUMP JUMPDEST SWAP4 POP PUSH1 0x60 DUP8 ADD CALLDATALOAD SWAP2 POP DUP1 DUP3 GT ISZERO PUSH2 0xCD3 JUMPI PUSH1 0x0 DUP1 REVERT JUMPDEST POP PUSH2 0xCE0 DUP8 DUP3 DUP9 ADD PUSH2 0xBB2 JUMP JUMPDEST SWAP2 POP POP SWAP3 SWAP6 SWAP2 SWAP5 POP SWAP3 POP JUMP JUMPDEST DUP1 CALLDATALOAD PUSH1 0x1 PUSH1 0x1 PUSH1 0xA0 SHL SUB DUP2 AND DUP2 EQ PUSH2 0xD03 JUMPI PUSH1 0x0 DUP1 REVERT JUMPDEST SWAP2 SWAP1 POP JUMP JUMPDEST PUSH1 0x0 PUSH1 0x20 DUP3 DUP5 SUB SLT ISZERO PUSH2 0xD1A JUMPI PUSH1 0x0 DUP1 REVERT JUMPDEST PUSH2 0xD23 DUP3 PUSH2 0xCEC JUMP JUMPDEST SWAP4 SWAP3 POP POP POP JUMP JUMPDEST PUSH1 0x0 JUMPDEST DUP4 DUP2 LT ISZERO PUSH2 0xD45 JUMPI DUP2 DUP2 ADD MLOAD DUP4 DUP3 ADD MSTORE PUSH1 0x20 ADD PUSH2 0xD2D JUMP JUMPDEST DUP4 DUP2 GT ISZERO PUSH2 0x405 JUMPI POP POP PUSH1 0x0 SWAP2 ADD MSTORE JUMP JUMPDEST PUSH1 0x0 DUP2 MLOAD DUP1 DUP5 MSTORE PUSH2 0xD6E DUP2 PUSH1 0x20 DUP7 ADD PUSH1 0x20 DUP7 ADD PUSH2 0xD2A JUMP JUMPDEST PUSH1 0x1F ADD PUSH1 0x1F NOT AND SWAP3 SWAP1 SWAP3 ADD PUSH1 0x20 ADD SWAP3 SWAP2 POP POP JUMP JUMPDEST PUSH1 0x20 DUP2 MSTORE PUSH1 0x0 PUSH2 0xD23 PUSH1 0x20 DUP4 ADD DUP5 PUSH2 0xD56 JUMP JUMPDEST PUSH1 0x0 PUSH1 0x20 DUP3 DUP5 SUB SLT ISZERO PUSH2 0xDA7 JUMPI PUSH1 0x0 DUP1 REVERT JUMPDEST DUP2 CALLDATALOAD PUSH8 0xFFFFFFFFFFFFFFFF DUP2 GT ISZERO PUSH2 0xDBE JUMPI PUSH1 0x0 DUP1 REVERT JUMPDEST PUSH2 0xDCA DUP5 DUP3 DUP6 ADD PUSH2 0xBB2 JUMP JUMPDEST SWAP5 SWAP4 POP POP POP POP JUMP JUMPDEST PUSH1 0x0 PUSH1 0x20 DUP1 DUP4 ADD DUP2 DUP5 MSTORE DUP1 DUP6 MLOAD DUP1 DUP4 MSTORE PUSH1 0x40 SWAP3 POP DUP3 DUP7 ADD SWAP2 POP DUP3 DUP2 PUSH1 0x5 SHL DUP8 ADD ADD DUP5 DUP9 ADD PUSH1 0x0 JUMPDEST DUP4 DUP2 LT ISZERO PUSH2 0xE80 JUMPI PUSH1 0x3F NOT DUP10 DUP5 SUB ADD DUP6 MSTORE DUP2 MLOAD PUSH1 0x80 DUP2 MLOAD DUP2 DUP7 MSTORE PUSH2 0xE1F DUP3 DUP8 ADD DUP3 PUSH2 0xD56 JUMP JUMPDEST SWAP2 POP POP DUP9 DUP3 ADD MLOAD DUP6 DUP3 SUB DUP11 DUP8 ADD MSTORE PUSH2 0xE37 DUP3 DUP3 PUSH2 0xD56 JUMP JUMPDEST SWAP2 POP POP DUP8 DUP3 ADD MLOAD DUP6 DUP3 SUB DUP10 DUP8 ADD MSTORE PUSH2 0xE4F DUP3 DUP3 PUSH2 0xD56 JUMP JUMPDEST SWAP2 POP POP PUSH1 0x60 DUP1 DUP4 ADD MLOAD SWAP3 POP DUP6 DUP3 SUB DUP2 DUP8 ADD MSTORE POP PUSH2 0xE6C DUP2 DUP4 PUSH2 0xD56 JUMP JUMPDEST SWAP7 DUP10 ADD SWAP7 SWAP5 POP POP POP SWAP1 DUP7 ADD SWAP1 PUSH1 0x1 ADD PUSH2 0xDF9 JUMP JUMPDEST POP SWAP1 SWAP9 SWAP8 POP POP POP POP POP POP POP POP JUMP JUMPDEST PUSH1 0x0 DUP1 PUSH1 0x0 DUP1 PUSH1 0x80 DUP6 DUP8 SUB SLT ISZERO PUSH2 0xEA4 JUMPI PUSH1 0x0 DUP1 REVERT JUMPDEST PUSH2 0xEAD DUP6 PUSH2 0xCEC JUMP JUMPDEST SWAP4 POP PUSH1 0x20 DUP6 ADD CALLDATALOAD PUSH8 0xFFFFFFFFFFFFFFFF DUP1 DUP3 GT ISZERO PUSH2 0xC8F JUMPI PUSH1 0x0 DUP1 REVERT JUMPDEST PUSH1 0x0 DUP3 MLOAD PUSH2 0xEDC DUP2 DUP5 PUSH1 0x20 DUP8 ADD PUSH2 0xD2A JUMP JUMPDEST SWAP2 SWAP1 SWAP2 ADD SWAP3 SWAP2 POP POP JUMP JUMPDEST PUSH1 0x1 DUP2 DUP2 SHR SWAP1 DUP3 AND DUP1 PUSH2 0xEFA JUMPI PUSH1 0x7F DUP3 AND SWAP2 POP JUMPDEST PUSH1 0x20 DUP3 LT DUP2 SUB PUSH2 0xF1A JUMPI PUSH4 0x4E487B71 PUSH1 0xE0 SHL PUSH1 0x0 MSTORE PUSH1 0x22 PUSH1 0x4 MSTORE PUSH1 0x24 PUSH1 0x0 REVERT JUMPDEST POP SWAP2 SWAP1 POP JUMP JUMPDEST PUSH4 0x4E487B71 PUSH1 0xE0 SHL PUSH1 0x0 MSTORE PUSH1 0x32 PUSH1 0x4 MSTORE PUSH1 0x24 PUSH1 0x0 REVERT JUMPDEST PUSH1 0x0 DUP1 DUP4 SLOAD DUP2 PUSH1 0x1 DUP3 DUP2 SHR SWAP2 POP DUP1 DUP4 AND DUP1 PUSH2 0xF52 JUMPI PUSH1 0x7F DUP4 AND SWAP3 POP JUMPDEST PUSH1 0x20 DUP1 DUP5 LT DUP3 SUB PUSH2 0xF71 JUMPI PUSH4 0x4E487B71 PUSH1 0xE0 SHL DUP7 MSTORE PUSH1 0x22 PUSH1 0x4 MSTORE PUSH1 0x24 DUP7 REVERT JUMPDEST DUP2 DUP1 ISZERO PUSH2 0xF85 JUMPI PUSH1 0x1 DUP2 EQ PUSH2 0xF96 JUMPI PUSH2 0xFC3 JUMP JUMPDEST PUSH1 0xFF NOT DUP7 AND DUP10 MSTORE DUP5 DUP10 ADD SWAP7 POP PUSH2 0xFC3 JUMP JUMPDEST PUSH1 0x0 DUP11 DUP2 MSTORE PUSH1 0x20 SWAP1 KECCAK256 PUSH1 0x0 JUMPDEST DUP7 DUP2 LT ISZERO PUSH2 0xFBB JUMPI DUP2 SLOAD DUP12 DUP3 ADD MSTORE SWAP1 DUP6 ADD SWAP1 DUP4 ADD PUSH2 0xFA2 JUMP JUMPDEST POP POP DUP5 DUP10 ADD SWAP7 POP JUMPDEST POP SWAP5 SWAP9 SWAP8 POP POP POP POP POP POP POP POP JUMP JUMPDEST PUSH1 0x0 PUSH1 0x1 DUP3 ADD PUSH2 0xFF1 JUMPI PUSH4 0x4E487B71 PUSH1 0xE0 SHL PUSH1 0x0 MSTORE PUSH1 0x11 PUSH1 0x4 MSTORE PUSH1 0x24 PUSH1 0x0 REVERT JUMPDEST POP PUSH1 0x1 ADD SWAP1 JUMP INVALID LOG2 PUSH5 0x6970667358 0x22 SLT KECCAK256 PUSH15 0xC9DF1BF48196CA73E389431765A1D9 PUSH17 0xADC914685C4D98036C9BF4C8D99B046473 PUSH16 0x6C634300080E00330000000000000000 ","sha1":"54ff86157ddb6715b8c1e8104210c9e564cff5f1","source":"//SPDX-License-Identifier: MIT\n\npragma solidity ^0.8.0;\n\nimport \"@openzeppelin/contracts/access/Ownable.sol\";\n\ncontract privateupload {\n    struct File {\n        string name;\n        string CID;\n        string key;\n        string iv;\n    }\n\n    //mapping (address=>mapping(bytes32=>string)[]) usercid;\n    mapping(address => string) publickey;\n    mapping(string => string) checkcid;\n    mapping(address => File[]) userscid;\n    mapping(address => File[]) sharedwithuser;\n\n    //retrieving public key\n    function getpublickey(address acc) public view returns (string memory) {\n        return publickey[acc];\n    }\n\n    //adding publickey\n    function addpublickey(string memory publicke) public {\n        publickey[msg.sender] = publicke;\n    }\n\n    //getting struct length\n    function getlength(address useraccount) public view returns (uint256) {\n        return userscid[useraccount].length;\n    }\n\n    //get current user files\n    function getusercid(address useraccount)\n        public\n        view\n        returns (File[] memory)\n    {\n        return userscid[useraccount];\n    }\n\n    function getsharedwithuser(address useraccount)\n        public\n        view\n        returns (File[] memory)\n    {\n        return sharedwithuser[useraccount];\n    }\n\n    //add file cid and name(if only uploaded by the user alone)\n    function addcid(\n        string memory cids,\n        string memory name,\n        string memory key,\n        string memory iv\n    ) public {\n        checkcid[cids] = name;\n        userscid[msg.sender].push(File(name, cids, key, iv));\n    }\n\n    //remove any cid if user wants it removed from his file system\n    function removecid(string memory cids) public {\n        uint256 j;\n        for (j = 0; j < userscid[msg.sender].length; j++) {\n            if (\n                keccak256(abi.encodePacked(cids)) ==\n                keccak256(abi.encodePacked(userscid[msg.sender][j].CID))\n            ) {\n                delete userscid[msg.sender][j];\n                break;\n            }\n        }\n    }\n\n    //share file cid with other user, who wants it(add the file name and cid in other user shared with me section)\n    function sharewithother(\n        address user,\n        string memory cids,\n        string memory pekey,\n        string memory iv\n    ) public {\n        sharedwithuser[user].push(File(checkcid[cids], cids, pekey, iv));\n    }\n}\n","sourcePath":"contracts/PrivateUpload.sol","deployment":{"address":"0xaf43B04f6E0a5E2D52cA48e9f246b39b0E232ca2","chainid":"5","blockHeight":8254257}}