{"abi":[{"inputs":[{"internalType":"string","name":"cids","type":"string"},{"internalType":"string","name":"name","type":"string"}],"name":"addcid","outputs":[],"stateMutability":"nonpayable","type":"function"},{"inputs":[{"internalType":"string","name":"","type":"string"}],"name":"checkcid","outputs":[{"internalType":"string","name":"","type":"string"}],"stateMutability":"view","type":"function"},{"inputs":[],"name":"getlength","outputs":[{"internalType":"uint256","name":"","type":"uint256"}],"stateMutability":"view","type":"function"},{"inputs":[],"name":"getusercid","outputs":[{"components":[{"internalType":"string","name":"name","type":"string"},{"internalType":"string","name":"CID","type":"string"}],"internalType":"struct Publicupload.File[]","name":"","type":"tuple[]"}],"stateMutability":"view","type":"function"},{"inputs":[{"internalType":"address","name":"","type":"address"}],"name":"publickey","outputs":[{"internalType":"bytes32","name":"","type":"bytes32"}],"stateMutability":"view","type":"function"},{"inputs":[{"internalType":"string","name":"cids","type":"string"}],"name":"removecid","outputs":[],"stateMutability":"nonpayable","type":"function"},{"inputs":[{"internalType":"address","name":"","type":"address"},{"internalType":"uint256","name":"","type":"uint256"}],"name":"sharedwithuser","outputs":[{"internalType":"string","name":"name","type":"string"},{"internalType":"string","name":"CID","type":"string"}],"stateMutability":"view","type":"function"},{"inputs":[{"internalType":"address","name":"user","type":"address"},{"internalType":"string","name":"cids","type":"string"}],"name":"sharewithother","outputs":[],"stateMutability":"nonpayable","type":"function"},{"inputs":[{"internalType":"address","name":"","type":"address"},{"internalType":"uint256","name":"","type":"uint256"}],"name":"userscid","outputs":[{"internalType":"string","name":"name","type":"string"},{"internalType":"string","name":"CID","type":"string"}],"stateMutability":"view","type":"function"}],"bytecode":"608060405234801561001057600080fd5b50610d1e806100206000396000f3fe608060405234801561001057600080fd5b50600436106100935760003560e01c80635d808b61116100665780635d808b611461010c5780636884839d1461011f5780639907caa81461014d578063a16d359814610160578063b7507d5f1461017557600080fd5b8063037bfa90146100985780633c5c3dd1146100b6578063593a171b146100cb5780635b0afea7146100ec575b600080fd5b6100a0610188565b6040516100ad9190610904565b60405180910390f35b6100c96100c4366004610a48565b610316565b005b6100de6100d9366004610a96565b610443565b6040516100ad929190610ac0565b6100ff6100fa366004610aee565b610594565b6040516100ad9190610b2b565b6100c961011a366004610aee565b610639565b61013f61012d366004610b45565b60006020819052908152604090205481565b6040519081526020016100ad565b6100c961015b366004610b60565b61073c565b3360009081526002602052604090205461013f565b6100de610183366004610a96565b6107ba565b336000908152600260209081526040808320805482518185028101850190935280835260609492939192909184015b8282101561030d57838290600052602060002090600202016040518060400160405290816000820180546101ea90610bba565b80601f016020809104026020016040519081016040528092919081815260200182805461021690610bba565b80156102635780601f1061023857610100808354040283529160200191610263565b820191906000526020600020905b81548152906001019060200180831161024657829003601f168201915b5050505050815260200160018201805461027c90610bba565b80601f01602080910402602001604051908101604052809291908181526020018280546102a890610bba565b80156102f55780601f106102ca576101008083540402835291602001916102f5565b820191906000526020600020905b8154815290600101906020018083116102d857829003601f168201915b505050505081525050815260200190600101906101b7565b50505050905090565b60036000836001600160a01b03166001600160a01b0316815260200190815260200160002060405180604001604052806001846040516103569190610bf4565b9081526020016040518091039020805461036f90610bba565b80601f016020809104026020016040519081016040528092919081815260200182805461039b90610bba565b80156103e85780601f106103bd576101008083540402835291602001916103e8565b820191906000526020600020905b8154815290600101906020018083116103cb57829003601f168201915b5050509183525050602090810184905282546001810184556000938452928190208251805193946002029091019261042392849201906107d6565b50602082810151805161043c92600185019201906107d6565b5050505050565b6003602052816000526040600020818154811061045f57600080fd5b90600052602060002090600202016000915091505080600001805461048390610bba565b80601f01602080910402602001604051908101604052809291908181526020018280546104af90610bba565b80156104fc5780601f106104d1576101008083540402835291602001916104fc565b820191906000526020600020905b8154815290600101906020018083116104df57829003601f168201915b50505050509080600101805461051190610bba565b80601f016020809104026020016040519081016040528092919081815260200182805461053d90610bba565b801561058a5780601f1061055f5761010080835404028352916020019161058a565b820191906000526020600020905b81548152906001019060200180831161056d57829003601f168201915b5050505050905082565b8051602081830181018051600182529282019190930120915280546105b890610bba565b80601f01602080910402602001604051908101604052809291908181526020018280546105e490610bba565b80156106315780601f1061060657610100808354040283529160200191610631565b820191906000526020600020905b81548152906001019060200180831161061457829003601f168201915b505050505081565b60005b336000908152600260205260409020548110156107385733600090815260026020526040902080548290811061067457610674610c10565b90600052602060002090600202016001016040516020016106959190610c26565b60405160208183030381529060405280519060200120826040516020016106bc9190610bf4565b6040516020818303038152906040528051906020012003610726573360009081526002602052604090208054829081106106f8576106f8610c10565b60009182526020822060029091020190610712828261085a565b61072060018301600061085a565b50505050565b8061073081610cc1565b91505061063c565b5050565b8060018360405161074d9190610bf4565b9081526020016040518091039020908051906020019061076e9291906107d6565b50336000908152600260208181526040808420815180830190925285825281830187905280546001810182559085529382902081518051929590940201926104239284929101906107d6565b6002602052816000526040600020818154811061045f57600080fd5b8280546107e290610bba565b90600052602060002090601f016020900481019282610804576000855561084a565b82601f1061081d57805160ff191683800117855561084a565b8280016001018555821561084a579182015b8281111561084a57825182559160200191906001019061082f565b50610856929150610897565b5090565b50805461086690610bba565b6000825580601f10610876575050565b601f0160209004906000526020600020908101906108949190610897565b50565b5b808211156108565760008155600101610898565b60005b838110156108c75781810151838201526020016108af565b838111156107205750506000910152565b600081518084526108f08160208601602086016108ac565b601f01601f19169290920160200192915050565b60006020808301818452808551808352604092508286019150828160051b87010184880160005b8381101561097b57888303603f190185528151805187855261094f888601826108d8565b91890151858303868b015291905061096781836108d8565b96890196945050509086019060010161092b565b509098975050505050505050565b80356001600160a01b03811681146109a057600080fd5b919050565b634e487b7160e01b600052604160045260246000fd5b600082601f8301126109cc57600080fd5b813567ffffffffffffffff808211156109e7576109e76109a5565b604051601f8301601f19908116603f01168101908282118183101715610a0f57610a0f6109a5565b81604052838152866020858801011115610a2857600080fd5b836020870160208301376000602085830101528094505050505092915050565b60008060408385031215610a5b57600080fd5b610a6483610989565b9150602083013567ffffffffffffffff811115610a8057600080fd5b610a8c858286016109bb565b9150509250929050565b60008060408385031215610aa957600080fd5b610ab283610989565b946020939093013593505050565b604081526000610ad360408301856108d8565b8281036020840152610ae581856108d8565b95945050505050565b600060208284031215610b0057600080fd5b813567ffffffffffffffff811115610b1757600080fd5b610b23848285016109bb565b949350505050565b602081526000610b3e60208301846108d8565b9392505050565b600060208284031215610b5757600080fd5b610b3e82610989565b60008060408385031215610b7357600080fd5b823567ffffffffffffffff80821115610b8b57600080fd5b610b97868387016109bb565b93506020850135915080821115610bad57600080fd5b50610a8c858286016109bb565b600181811c90821680610bce57607f821691505b602082108103610bee57634e487b7160e01b600052602260045260246000fd5b50919050565b60008251610c068184602087016108ac565b9190910192915050565b634e487b7160e01b600052603260045260246000fd5b600080835481600182811c915080831680610c4257607f831692505b60208084108203610c6157634e487b7160e01b86526022600452602486fd5b818015610c755760018114610c8657610cb3565b60ff19861689528489019650610cb3565b60008a81526020902060005b86811015610cab5781548b820152908501908301610c92565b505084890196505b509498975050505050505050565b600060018201610ce157634e487b7160e01b600052601160045260246000fd5b506001019056fea2646970667358221220c8344b35faa605e8a08bf6a7c4436304102eb65af259dc104d3e20379645c98d64736f6c634300080e0033","bytecodeSha1":"cc238e5ff174d4ceff41813fd361326fa87c5134","compiler":{"evm_version":"istanbul","optimizer":{"enabled":true,"runs":200},"version":"0.8.14+commit.80d49f37"},"contractName":"Publicupload","language":"Solidity","natspec":{"kind":"dev","methods":{},"version":1},"opcodes":"PUSH1 0x80 PUSH1 0x40 MSTORE CALLVALUE DUP1 ISZERO PUSH2 0x10 JUMPI PUSH1 0x0 DUP1 REVERT JUMPDEST POP PUSH1 0x4 CALLDATASIZE LT PUSH2 0x93 JUMPI PUSH1 0x0 CALLDATALOAD PUSH1 0xE0 SHR DUP1 PUSH4 0x5D808B61 GT PUSH2 0x66 JUMPI DUP1 PUSH4 0x5D808B61 EQ PUSH2 0x10C JUMPI DUP1 PUSH4 0x6884839D EQ PUSH2 0x11F JUMPI DUP1 PUSH4 0x9907CAA8 EQ PUSH2 0x14D JUMPI DUP1 PUSH4 0xA16D3598 EQ PUSH2 0x160 JUMPI DUP1 PUSH4 0xB7507D5F EQ PUSH2 0x175 JUMPI PUSH1 0x0 DUP1 REVERT JUMPDEST DUP1 PUSH4 0x37BFA90 EQ PUSH2 0x98 JUMPI DUP1 PUSH4 0x3C5C3DD1 EQ PUSH2 0xB6 JUMPI DUP1 PUSH4 0x593A171B EQ PUSH2 0xCB JUMPI DUP1 PUSH4 0x5B0AFEA7 EQ PUSH2 0xEC JUMPI JUMPDEST PUSH1 0x0 DUP1 REVERT JUMPDEST PUSH2 0xA0 PUSH2 0x188 JUMP JUMPDEST PUSH1 0x40 MLOAD PUSH2 0xAD SWAP2 SWAP1 PUSH2 0x904 JUMP JUMPDEST PUSH1 0x40 MLOAD DUP1 SWAP2 SUB SWAP1 RETURN JUMPDEST PUSH2 0xC9 PUSH2 0xC4 CALLDATASIZE PUSH1 0x4 PUSH2 0xA48 JUMP JUMPDEST PUSH2 0x316 JUMP JUMPDEST STOP JUMPDEST PUSH2 0xDE PUSH2 0xD9 CALLDATASIZE PUSH1 0x4 PUSH2 0xA96 JUMP JUMPDEST PUSH2 0x443 JUMP JUMPDEST PUSH1 0x40 MLOAD PUSH2 0xAD SWAP3 SWAP2 SWAP1 PUSH2 0xAC0 JUMP JUMPDEST PUSH2 0xFF PUSH2 0xFA CALLDATASIZE PUSH1 0x4 PUSH2 0xAEE JUMP JUMPDEST PUSH2 0x594 JUMP JUMPDEST PUSH1 0x40 MLOAD PUSH2 0xAD SWAP2 SWAP1 PUSH2 0xB2B JUMP JUMPDEST PUSH2 0xC9 PUSH2 0x11A CALLDATASIZE PUSH1 0x4 PUSH2 0xAEE JUMP JUMPDEST PUSH2 0x639 JUMP JUMPDEST PUSH2 0x13F PUSH2 0x12D CALLDATASIZE PUSH1 0x4 PUSH2 0xB45 JUMP JUMPDEST PUSH1 0x0 PUSH1 0x20 DUP2 SWAP1 MSTORE SWAP1 DUP2 MSTORE PUSH1 0x40 SWAP1 KECCAK256 SLOAD DUP2 JUMP JUMPDEST PUSH1 0x40 MLOAD SWAP1 DUP2 MSTORE PUSH1 0x20 ADD PUSH2 0xAD JUMP JUMPDEST PUSH2 0xC9 PUSH2 0x15B CALLDATASIZE PUSH1 0x4 PUSH2 0xB60 JUMP JUMPDEST PUSH2 0x73C JUMP JUMPDEST CALLER PUSH1 0x0 SWAP1 DUP2 MSTORE PUSH1 0x2 PUSH1 0x20 MSTORE PUSH1 0x40 SWAP1 KECCAK256 SLOAD PUSH2 0x13F JUMP JUMPDEST PUSH2 0xDE PUSH2 0x183 CALLDATASIZE PUSH1 0x4 PUSH2 0xA96 JUMP JUMPDEST PUSH2 0x7BA JUMP JUMPDEST CALLER PUSH1 0x0 SWAP1 DUP2 MSTORE PUSH1 0x2 PUSH1 0x20 SWAP1 DUP2 MSTORE PUSH1 0x40 DUP1 DUP4 KECCAK256 DUP1 SLOAD DUP3 MLOAD DUP2 DUP6 MUL DUP2 ADD DUP6 ADD SWAP1 SWAP4 MSTORE DUP1 DUP4 MSTORE PUSH1 0x60 SWAP5 SWAP3 SWAP4 SWAP2 SWAP3 SWAP1 SWAP2 DUP5 ADD JUMPDEST DUP3 DUP3 LT ISZERO PUSH2 0x30D JUMPI DUP4 DUP3 SWAP1 PUSH1 0x0 MSTORE PUSH1 0x20 PUSH1 0x0 KECCAK256 SWAP1 PUSH1 0x2 MUL ADD PUSH1 0x40 MLOAD DUP1 PUSH1 0x40 ADD PUSH1 0x40 MSTORE SWAP1 DUP2 PUSH1 0x0 DUP3 ADD DUP1 SLOAD PUSH2 0x1EA SWAP1 PUSH2 0xBBA JUMP JUMPDEST DUP1 PUSH1 0x1F ADD PUSH1 0x20 DUP1 SWAP2 DIV MUL PUSH1 0x20 ADD PUSH1 0x40 MLOAD SWAP1 DUP2 ADD PUSH1 0x40 MSTORE DUP1 SWAP3 SWAP2 SWAP1 DUP2 DUP2 MSTORE PUSH1 0x20 ADD DUP3 DUP1 SLOAD PUSH2 0x216 SWAP1 PUSH2 0xBBA JUMP JUMPDEST DUP1 ISZERO PUSH2 0x263 JUMPI DUP1 PUSH1 0x1F LT PUSH2 0x238 JUMPI PUSH2 0x100 DUP1 DUP4 SLOAD DIV MUL DUP4 MSTORE SWAP2 PUSH1 0x20 ADD SWAP2 PUSH2 0x263 JUMP JUMPDEST DUP3 ADD SWAP2 SWAP1 PUSH1 0x0 MSTORE PUSH1 0x20 PUSH1 0x0 KECCAK256 SWAP1 JUMPDEST DUP2 SLOAD DUP2 MSTORE SWAP1 PUSH1 0x1 ADD SWAP1 PUSH1 0x20 ADD DUP1 DUP4 GT PUSH2 0x246 JUMPI DUP3 SWAP1 SUB PUSH1 0x1F AND DUP3 ADD SWAP2 JUMPDEST POP POP POP POP POP DUP2 MSTORE PUSH1 0x20 ADD PUSH1 0x1 DUP3 ADD DUP1 SLOAD PUSH2 0x27C SWAP1 PUSH2 0xBBA JUMP JUMPDEST DUP1 PUSH1 0x1F ADD PUSH1 0x20 DUP1 SWAP2 DIV MUL PUSH1 0x20 ADD PUSH1 0x40 MLOAD SWAP1 DUP2 ADD PUSH1 0x40 MSTORE DUP1 SWAP3 SWAP2 SWAP1 DUP2 DUP2 MSTORE PUSH1 0x20 ADD DUP3 DUP1 SLOAD PUSH2 0x2A8 SWAP1 PUSH2 0xBBA JUMP JUMPDEST DUP1 ISZERO PUSH2 0x2F5 JUMPI DUP1 PUSH1 0x1F LT PUSH2 0x2CA JUMPI PUSH2 0x100 DUP1 DUP4 SLOAD DIV MUL DUP4 MSTORE SWAP2 PUSH1 0x20 ADD SWAP2 PUSH2 0x2F5 JUMP JUMPDEST DUP3 ADD SWAP2 SWAP1 PUSH1 0x0 MSTORE PUSH1 0x20 PUSH1 0x0 KECCAK256 SWAP1 JUMPDEST DUP2 SLOAD DUP2 MSTORE SWAP1 PUSH1 0x1 ADD SWAP1 PUSH1 0x20 ADD DUP1 DUP4 GT PUSH2 0x2D8 JUMPI DUP3 SWAP1 SUB PUSH1 0x1F AND DUP3 ADD SWAP2 JUMPDEST POP POP POP POP POP DUP2 MSTORE POP POP DUP2 MSTORE PUSH1 0x20 ADD SWAP1 PUSH1 0x1 ADD SWAP1 PUSH2 0x1B7 JUMP JUMPDEST POP POP POP POP SWAP1 POP SWAP1 JUMP JUMPDEST PUSH1 0x3 PUSH1 0x0 DUP4 PUSH1 0x1 PUSH1 0x1 PUSH1 0xA0 SHL SUB AND PUSH1 0x1 PUSH1 0x1 PUSH1 0xA0 SHL SUB AND DUP2 MSTORE PUSH1 0x20 ADD SWAP1 DUP2 MSTORE PUSH1 0x20 ADD PUSH1 0x0 KECCAK256 PUSH1 0x40 MLOAD DUP1 PUSH1 0x40 ADD PUSH1 0x40 MSTORE DUP1 PUSH1 0x1 DUP5 PUSH1 0x40 MLOAD PUSH2 0x356 SWAP2 SWAP1 PUSH2 0xBF4 JUMP JUMPDEST SWAP1 DUP2 MSTORE PUSH1 0x20 ADD PUSH1 0x40 MLOAD DUP1 SWAP2 SUB SWAP1 KECCAK256 DUP1 SLOAD PUSH2 0x36F SWAP1 PUSH2 0xBBA JUMP JUMPDEST DUP1 PUSH1 0x1F ADD PUSH1 0x20 DUP1 SWAP2 DIV MUL PUSH1 0x20 ADD PUSH1 0x40 MLOAD SWAP1 DUP2 ADD PUSH1 0x40 MSTORE DUP1 SWAP3 SWAP2 SWAP1 DUP2 DUP2 MSTORE PUSH1 0x20 ADD DUP3 DUP1 SLOAD PUSH2 0x39B SWAP1 PUSH2 0xBBA JUMP JUMPDEST DUP1 ISZERO PUSH2 0x3E8 JUMPI DUP1 PUSH1 0x1F LT PUSH2 0x3BD JUMPI PUSH2 0x100 DUP1 DUP4 SLOAD DIV MUL DUP4 MSTORE SWAP2 PUSH1 0x20 ADD SWAP2 PUSH2 0x3E8 JUMP JUMPDEST DUP3 ADD SWAP2 SWAP1 PUSH1 0x0 MSTORE PUSH1 0x20 PUSH1 0x0 KECCAK256 SWAP1 JUMPDEST DUP2 SLOAD DUP2 MSTORE SWAP1 PUSH1 0x1 ADD SWAP1 PUSH1 0x20 ADD DUP1 DUP4 GT PUSH2 0x3CB JUMPI DUP3 SWAP1 SUB PUSH1 0x1F AND DUP3 ADD SWAP2 JUMPDEST POP POP POP SWAP2 DUP4 MSTORE POP POP PUSH1 0x20 SWAP1 DUP2 ADD DUP5 SWAP1 MSTORE DUP3 SLOAD PUSH1 0x1 DUP2 ADD DUP5 SSTORE PUSH1 0x0 SWAP4 DUP5 MSTORE SWAP3 DUP2 SWAP1 KECCAK256 DUP3 MLOAD DUP1 MLOAD SWAP4 SWAP5 PUSH1 0x2 MUL SWAP1 SWAP2 ADD SWAP3 PUSH2 0x423 SWAP3 DUP5 SWAP3 ADD SWAP1 PUSH2 0x7D6 JUMP JUMPDEST POP PUSH1 0x20 DUP3 DUP2 ADD MLOAD DUP1 MLOAD PUSH2 0x43C SWAP3 PUSH1 0x1 DUP6 ADD SWAP3 ADD SWAP1 PUSH2 0x7D6 JUMP JUMPDEST POP POP POP POP POP JUMP JUMPDEST PUSH1 0x3 PUSH1 0x20 MSTORE DUP2 PUSH1 0x0 MSTORE PUSH1 0x40 PUSH1 0x0 KECCAK256 DUP2 DUP2 SLOAD DUP2 LT PUSH2 0x45F JUMPI PUSH1 0x0 DUP1 REVERT JUMPDEST SWAP1 PUSH1 0x0 MSTORE PUSH1 0x20 PUSH1 0x0 KECCAK256 SWAP1 PUSH1 0x2 MUL ADD PUSH1 0x0 SWAP2 POP SWAP2 POP POP DUP1 PUSH1 0x0 ADD DUP1 SLOAD PUSH2 0x483 SWAP1 PUSH2 0xBBA JUMP JUMPDEST DUP1 PUSH1 0x1F ADD PUSH1 0x20 DUP1 SWAP2 DIV MUL PUSH1 0x20 ADD PUSH1 0x40 MLOAD SWAP1 DUP2 ADD PUSH1 0x40 MSTORE DUP1 SWAP3 SWAP2 SWAP1 DUP2 DUP2 MSTORE PUSH1 0x20 ADD DUP3 DUP1 SLOAD PUSH2 0x4AF SWAP1 PUSH2 0xBBA JUMP JUMPDEST DUP1 ISZERO PUSH2 0x4FC JUMPI DUP1 PUSH1 0x1F LT PUSH2 0x4D1 JUMPI PUSH2 0x100 DUP1 DUP4 SLOAD DIV MUL DUP4 MSTORE SWAP2 PUSH1 0x20 ADD SWAP2 PUSH2 0x4FC JUMP JUMPDEST DUP3 ADD SWAP2 SWAP1 PUSH1 0x0 MSTORE PUSH1 0x20 PUSH1 0x0 KECCAK256 SWAP1 JUMPDEST DUP2 SLOAD DUP2 MSTORE SWAP1 PUSH1 0x1 ADD SWAP1 PUSH1 0x20 ADD DUP1 DUP4 GT PUSH2 0x4DF JUMPI DUP3 SWAP1 SUB PUSH1 0x1F AND DUP3 ADD SWAP2 JUMPDEST POP POP POP POP POP SWAP1 DUP1 PUSH1 0x1 ADD DUP1 SLOAD PUSH2 0x511 SWAP1 PUSH2 0xBBA JUMP JUMPDEST DUP1 PUSH1 0x1F ADD PUSH1 0x20 DUP1 SWAP2 DIV MUL PUSH1 0x20 ADD PUSH1 0x40 MLOAD SWAP1 DUP2 ADD PUSH1 0x40 MSTORE DUP1 SWAP3 SWAP2 SWAP1 DUP2 DUP2 MSTORE PUSH1 0x20 ADD DUP3 DUP1 SLOAD PUSH2 0x53D SWAP1 PUSH2 0xBBA JUMP JUMPDEST DUP1 ISZERO PUSH2 0x58A JUMPI DUP1 PUSH1 0x1F LT PUSH2 0x55F JUMPI PUSH2 0x100 DUP1 DUP4 SLOAD DIV MUL DUP4 MSTORE SWAP2 PUSH1 0x20 ADD SWAP2 PUSH2 0x58A JUMP JUMPDEST DUP3 ADD SWAP2 SWAP1 PUSH1 0x0 MSTORE PUSH1 0x20 PUSH1 0x0 KECCAK256 SWAP1 JUMPDEST DUP2 SLOAD DUP2 MSTORE SWAP1 PUSH1 0x1 ADD SWAP1 PUSH1 0x20 ADD DUP1 DUP4 GT PUSH2 0x56D JUMPI DUP3 SWAP1 SUB PUSH1 0x1F AND DUP3 ADD SWAP2 JUMPDEST POP POP POP POP POP SWAP1 POP DUP3 JUMP JUMPDEST DUP1 MLOAD PUSH1 0x20 DUP2 DUP4 ADD DUP2 ADD DUP1 MLOAD PUSH1 0x1 DUP3 MSTORE SWAP3 DUP3 ADD SWAP2 SWAP1 SWAP4 ADD KECCAK256 SWAP2 MSTORE DUP1 SLOAD PUSH2 0x5B8 SWAP1 PUSH2 0xBBA JUMP JUMPDEST DUP1 PUSH1 0x1F ADD PUSH1 0x20 DUP1 SWAP2 DIV MUL PUSH1 0x20 ADD PUSH1 0x40 MLOAD SWAP1 DUP2 ADD PUSH1 0x40 MSTORE DUP1 SWAP3 SWAP2 SWAP1 DUP2 DUP2 MSTORE PUSH1 0x20 ADD DUP3 DUP1 SLOAD PUSH2 0x5E4 SWAP1 PUSH2 0xBBA JUMP JUMPDEST DUP1 ISZERO PUSH2 0x631 JUMPI DUP1 PUSH1 0x1F LT PUSH2 0x606 JUMPI PUSH2 0x100 DUP1 DUP4 SLOAD DIV MUL DUP4 MSTORE SWAP2 PUSH1 0x20 ADD SWAP2 PUSH2 0x631 JUMP JUMPDEST DUP3 ADD SWAP2 SWAP1 PUSH1 0x0 MSTORE PUSH1 0x20 PUSH1 0x0 KECCAK256 SWAP1 JUMPDEST DUP2 SLOAD DUP2 MSTORE SWAP1 PUSH1 0x1 ADD SWAP1 PUSH1 0x20 ADD DUP1 DUP4 GT PUSH2 0x614 JUMPI DUP3 SWAP1 SUB PUSH1 0x1F AND DUP3 ADD SWAP2 JUMPDEST POP POP POP POP POP DUP2 JUMP JUMPDEST PUSH1 0x0 JUMPDEST CALLER PUSH1 0x0 SWAP1 DUP2 MSTORE PUSH1 0x2 PUSH1 0x20 MSTORE PUSH1 0x40 SWAP1 KECCAK256 SLOAD DUP2 LT ISZERO PUSH2 0x738 JUMPI CALLER PUSH1 0x0 SWAP1 DUP2 MSTORE PUSH1 0x2 PUSH1 0x20 MSTORE PUSH1 0x40 SWAP1 KECCAK256 DUP1 SLOAD DUP3 SWAP1 DUP2 LT PUSH2 0x674 JUMPI PUSH2 0x674 PUSH2 0xC10 JUMP JUMPDEST SWAP1 PUSH1 0x0 MSTORE PUSH1 0x20 PUSH1 0x0 KECCAK256 SWAP1 PUSH1 0x2 MUL ADD PUSH1 0x1 ADD PUSH1 0x40 MLOAD PUSH1 0x20 ADD PUSH2 0x695 SWAP2 SWAP1 PUSH2 0xC26 JUMP JUMPDEST PUSH1 0x40 MLOAD PUSH1 0x20 DUP2 DUP4 SUB SUB DUP2 MSTORE SWAP1 PUSH1 0x40 MSTORE DUP1 MLOAD SWAP1 PUSH1 0x20 ADD KECCAK256 DUP3 PUSH1 0x40 MLOAD PUSH1 0x20 ADD PUSH2 0x6BC SWAP2 SWAP1 PUSH2 0xBF4 JUMP JUMPDEST PUSH1 0x40 MLOAD PUSH1 0x20 DUP2 DUP4 SUB SUB DUP2 MSTORE SWAP1 PUSH1 0x40 MSTORE DUP1 MLOAD SWAP1 PUSH1 0x20 ADD KECCAK256 SUB PUSH2 0x726 JUMPI CALLER PUSH1 0x0 SWAP1 DUP2 MSTORE PUSH1 0x2 PUSH1 0x20 MSTORE PUSH1 0x40 SWAP1 KECCAK256 DUP1 SLOAD DUP3 SWAP1 DUP2 LT PUSH2 0x6F8 JUMPI PUSH2 0x6F8 PUSH2 0xC10 JUMP JUMPDEST PUSH1 0x0 SWAP2 DUP3 MSTORE PUSH1 0x20 DUP3 KECCAK256 PUSH1 0x2 SWAP1 SWAP2 MUL ADD SWAP1 PUSH2 0x712 DUP3 DUP3 PUSH2 0x85A JUMP JUMPDEST PUSH2 0x720 PUSH1 0x1 DUP4 ADD PUSH1 0x0 PUSH2 0x85A JUMP JUMPDEST POP POP POP POP JUMP JUMPDEST DUP1 PUSH2 0x730 DUP2 PUSH2 0xCC1 JUMP JUMPDEST SWAP2 POP POP PUSH2 0x63C JUMP JUMPDEST POP POP JUMP JUMPDEST DUP1 PUSH1 0x1 DUP4 PUSH1 0x40 MLOAD PUSH2 0x74D SWAP2 SWAP1 PUSH2 0xBF4 JUMP JUMPDEST SWAP1 DUP2 MSTORE PUSH1 0x20 ADD PUSH1 0x40 MLOAD DUP1 SWAP2 SUB SWAP1 KECCAK256 SWAP1 DUP1 MLOAD SWAP1 PUSH1 0x20 ADD SWAP1 PUSH2 0x76E SWAP3 SWAP2 SWAP1 PUSH2 0x7D6 JUMP JUMPDEST POP CALLER PUSH1 0x0 SWAP1 DUP2 MSTORE PUSH1 0x2 PUSH1 0x20 DUP2 DUP2 MSTORE PUSH1 0x40 DUP1 DUP5 KECCAK256 DUP2 MLOAD DUP1 DUP4 ADD SWAP1 SWAP3 MSTORE DUP6 DUP3 MSTORE DUP2 DUP4 ADD DUP8 SWAP1 MSTORE DUP1 SLOAD PUSH1 0x1 DUP2 ADD DUP3 SSTORE SWAP1 DUP6 MSTORE SWAP4 DUP3 SWAP1 KECCAK256 DUP2 MLOAD DUP1 MLOAD SWAP3 SWAP6 SWAP1 SWAP5 MUL ADD SWAP3 PUSH2 0x423 SWAP3 DUP5 SWAP3 SWAP2 ADD SWAP1 PUSH2 0x7D6 JUMP JUMPDEST PUSH1 0x2 PUSH1 0x20 MSTORE DUP2 PUSH1 0x0 MSTORE PUSH1 0x40 PUSH1 0x0 KECCAK256 DUP2 DUP2 SLOAD DUP2 LT PUSH2 0x45F JUMPI PUSH1 0x0 DUP1 REVERT JUMPDEST DUP3 DUP1 SLOAD PUSH2 0x7E2 SWAP1 PUSH2 0xBBA JUMP JUMPDEST SWAP1 PUSH1 0x0 MSTORE PUSH1 0x20 PUSH1 0x0 KECCAK256 SWAP1 PUSH1 0x1F ADD PUSH1 0x20 SWAP1 DIV DUP2 ADD SWAP3 DUP3 PUSH2 0x804 JUMPI PUSH1 0x0 DUP6 SSTORE PUSH2 0x84A JUMP JUMPDEST DUP3 PUSH1 0x1F LT PUSH2 0x81D JUMPI DUP1 MLOAD PUSH1 0xFF NOT AND DUP4 DUP1 ADD OR DUP6 SSTORE PUSH2 0x84A JUMP JUMPDEST DUP3 DUP1 ADD PUSH1 0x1 ADD DUP6 SSTORE DUP3 ISZERO PUSH2 0x84A JUMPI SWAP2 DUP3 ADD JUMPDEST DUP3 DUP2 GT ISZERO PUSH2 0x84A JUMPI DUP3 MLOAD DUP3 SSTORE SWAP2 PUSH1 0x20 ADD SWAP2 SWAP1 PUSH1 0x1 ADD SWAP1 PUSH2 0x82F JUMP JUMPDEST POP PUSH2 0x856 SWAP3 SWAP2 POP PUSH2 0x897 JUMP JUMPDEST POP SWAP1 JUMP JUMPDEST POP DUP1 SLOAD PUSH2 0x866 SWAP1 PUSH2 0xBBA JUMP JUMPDEST PUSH1 0x0 DUP3 SSTORE DUP1 PUSH1 0x1F LT PUSH2 0x876 JUMPI POP POP JUMP JUMPDEST PUSH1 0x1F ADD PUSH1 0x20 SWAP1 DIV SWAP1 PUSH1 0x0 MSTORE PUSH1 0x20 PUSH1 0x0 KECCAK256 SWAP1 DUP2 ADD SWAP1 PUSH2 0x894 SWAP2 SWAP1 PUSH2 0x897 JUMP JUMPDEST POP JUMP JUMPDEST JUMPDEST DUP1 DUP3 GT ISZERO PUSH2 0x856 JUMPI PUSH1 0x0 DUP2 SSTORE PUSH1 0x1 ADD PUSH2 0x898 JUMP JUMPDEST PUSH1 0x0 JUMPDEST DUP4 DUP2 LT ISZERO PUSH2 0x8C7 JUMPI DUP2 DUP2 ADD MLOAD DUP4 DUP3 ADD MSTORE PUSH1 0x20 ADD PUSH2 0x8AF JUMP JUMPDEST DUP4 DUP2 GT ISZERO PUSH2 0x720 JUMPI POP POP PUSH1 0x0 SWAP2 ADD MSTORE JUMP JUMPDEST PUSH1 0x0 DUP2 MLOAD DUP1 DUP5 MSTORE PUSH2 0x8F0 DUP2 PUSH1 0x20 DUP7 ADD PUSH1 0x20 DUP7 ADD PUSH2 0x8AC JUMP JUMPDEST PUSH1 0x1F ADD PUSH1 0x1F NOT AND SWAP3 SWAP1 SWAP3 ADD PUSH1 0x20 ADD SWAP3 SWAP2 POP POP JUMP JUMPDEST PUSH1 0x0 PUSH1 0x20 DUP1 DUP4 ADD DUP2 DUP5 MSTORE DUP1 DUP6 MLOAD DUP1 DUP4 MSTORE PUSH1 0x40 SWAP3 POP DUP3 DUP7 ADD SWAP2 POP DUP3 DUP2 PUSH1 0x5 SHL DUP8 ADD ADD DUP5 DUP9 ADD PUSH1 0x0 JUMPDEST DUP4 DUP2 LT ISZERO PUSH2 0x97B JUMPI DUP9 DUP4 SUB PUSH1 0x3F NOT ADD DUP6 MSTORE DUP2 MLOAD DUP1 MLOAD DUP8 DUP6 MSTORE PUSH2 0x94F DUP9 DUP7 ADD DUP3 PUSH2 0x8D8 JUMP JUMPDEST SWAP2 DUP10 ADD MLOAD DUP6 DUP4 SUB DUP7 DUP12 ADD MSTORE SWAP2 SWAP1 POP PUSH2 0x967 DUP2 DUP4 PUSH2 0x8D8 JUMP JUMPDEST SWAP7 DUP10 ADD SWAP7 SWAP5 POP POP POP SWAP1 DUP7 ADD SWAP1 PUSH1 0x1 ADD PUSH2 0x92B JUMP JUMPDEST POP SWAP1 SWAP9 SWAP8 POP POP POP POP POP POP POP POP JUMP JUMPDEST DUP1 CALLDATALOAD PUSH1 0x1 PUSH1 0x1 PUSH1 0xA0 SHL SUB DUP2 AND DUP2 EQ PUSH2 0x9A0 JUMPI PUSH1 0x0 DUP1 REVERT JUMPDEST SWAP2 SWAP1 POP JUMP JUMPDEST PUSH4 0x4E487B71 PUSH1 0xE0 SHL PUSH1 0x0 MSTORE PUSH1 0x41 PUSH1 0x4 MSTORE PUSH1 0x24 PUSH1 0x0 REVERT JUMPDEST PUSH1 0x0 DUP3 PUSH1 0x1F DUP4 ADD SLT PUSH2 0x9CC JUMPI PUSH1 0x0 DUP1 REVERT JUMPDEST DUP2 CALLDATALOAD PUSH8 0xFFFFFFFFFFFFFFFF DUP1 DUP3 GT ISZERO PUSH2 0x9E7 JUMPI PUSH2 0x9E7 PUSH2 0x9A5 JUMP JUMPDEST PUSH1 0x40 MLOAD PUSH1 0x1F DUP4 ADD PUSH1 0x1F NOT SWAP1 DUP2 AND PUSH1 0x3F ADD AND DUP2 ADD SWAP1 DUP3 DUP3 GT DUP2 DUP4 LT OR ISZERO PUSH2 0xA0F JUMPI PUSH2 0xA0F PUSH2 0x9A5 JUMP JUMPDEST DUP2 PUSH1 0x40 MSTORE DUP4 DUP2 MSTORE DUP7 PUSH1 0x20 DUP6 DUP9 ADD ADD GT ISZERO PUSH2 0xA28 JUMPI PUSH1 0x0 DUP1 REVERT JUMPDEST DUP4 PUSH1 0x20 DUP8 ADD PUSH1 0x20 DUP4 ADD CALLDATACOPY PUSH1 0x0 PUSH1 0x20 DUP6 DUP4 ADD ADD MSTORE DUP1 SWAP5 POP POP POP POP POP SWAP3 SWAP2 POP POP JUMP JUMPDEST PUSH1 0x0 DUP1 PUSH1 0x40 DUP4 DUP6 SUB SLT ISZERO PUSH2 0xA5B JUMPI PUSH1 0x0 DUP1 REVERT JUMPDEST PUSH2 0xA64 DUP4 PUSH2 0x989 JUMP JUMPDEST SWAP2 POP PUSH1 0x20 DUP4 ADD CALLDATALOAD PUSH8 0xFFFFFFFFFFFFFFFF DUP2 GT ISZERO PUSH2 0xA80 JUMPI PUSH1 0x0 DUP1 REVERT JUMPDEST PUSH2 0xA8C DUP6 DUP3 DUP7 ADD PUSH2 0x9BB JUMP JUMPDEST SWAP2 POP POP SWAP3 POP SWAP3 SWAP1 POP JUMP JUMPDEST PUSH1 0x0 DUP1 PUSH1 0x40 DUP4 DUP6 SUB SLT ISZERO PUSH2 0xAA9 JUMPI PUSH1 0x0 DUP1 REVERT JUMPDEST PUSH2 0xAB2 DUP4 PUSH2 0x989 JUMP JUMPDEST SWAP5 PUSH1 0x20 SWAP4 SWAP1 SWAP4 ADD CALLDATALOAD SWAP4 POP POP POP JUMP JUMPDEST PUSH1 0x40 DUP2 MSTORE PUSH1 0x0 PUSH2 0xAD3 PUSH1 0x40 DUP4 ADD DUP6 PUSH2 0x8D8 JUMP JUMPDEST DUP3 DUP2 SUB PUSH1 0x20 DUP5 ADD MSTORE PUSH2 0xAE5 DUP2 DUP6 PUSH2 0x8D8 JUMP JUMPDEST SWAP6 SWAP5 POP POP POP POP POP JUMP JUMPDEST PUSH1 0x0 PUSH1 0x20 DUP3 DUP5 SUB SLT ISZERO PUSH2 0xB00 JUMPI PUSH1 0x0 DUP1 REVERT JUMPDEST DUP2 CALLDATALOAD PUSH8 0xFFFFFFFFFFFFFFFF DUP2 GT ISZERO PUSH2 0xB17 JUMPI PUSH1 0x0 DUP1 REVERT JUMPDEST PUSH2 0xB23 DUP5 DUP3 DUP6 ADD PUSH2 0x9BB JUMP JUMPDEST SWAP5 SWAP4 POP POP POP POP JUMP JUMPDEST PUSH1 0x20 DUP2 MSTORE PUSH1 0x0 PUSH2 0xB3E PUSH1 0x20 DUP4 ADD DUP5 PUSH2 0x8D8 JUMP JUMPDEST SWAP4 SWAP3 POP POP POP JUMP JUMPDEST PUSH1 0x0 PUSH1 0x20 DUP3 DUP5 SUB SLT ISZERO PUSH2 0xB57 JUMPI PUSH1 0x0 DUP1 REVERT JUMPDEST PUSH2 0xB3E DUP3 PUSH2 0x989 JUMP JUMPDEST PUSH1 0x0 DUP1 PUSH1 0x40 DUP4 DUP6 SUB SLT ISZERO PUSH2 0xB73 JUMPI PUSH1 0x0 DUP1 REVERT JUMPDEST DUP3 CALLDATALOAD PUSH8 0xFFFFFFFFFFFFFFFF DUP1 DUP3 GT ISZERO PUSH2 0xB8B JUMPI PUSH1 0x0 DUP1 REVERT JUMPDEST PUSH2 0xB97 DUP7 DUP4 DUP8 ADD PUSH2 0x9BB JUMP JUMPDEST SWAP4 POP PUSH1 0x20 DUP6 ADD CALLDATALOAD SWAP2 POP DUP1 DUP3 GT ISZERO PUSH2 0xBAD JUMPI PUSH1 0x0 DUP1 REVERT JUMPDEST POP PUSH2 0xA8C DUP6 DUP3 DUP7 ADD PUSH2 0x9BB JUMP JUMPDEST PUSH1 0x1 DUP2 DUP2 SHR SWAP1 DUP3 AND DUP1 PUSH2 0xBCE JUMPI PUSH1 0x7F DUP3 AND SWAP2 POP JUMPDEST PUSH1 0x20 DUP3 LT DUP2 SUB PUSH2 0xBEE JUMPI PUSH4 0x4E487B71 PUSH1 0xE0 SHL PUSH1 0x0 MSTORE PUSH1 0x22 PUSH1 0x4 MSTORE PUSH1 0x24 PUSH1 0x0 REVERT JUMPDEST POP SWAP2 SWAP1 POP JUMP JUMPDEST PUSH1 0x0 DUP3 MLOAD PUSH2 0xC06 DUP2 DUP5 PUSH1 0x20 DUP8 ADD PUSH2 0x8AC JUMP JUMPDEST SWAP2 SWAP1 SWAP2 ADD SWAP3 SWAP2 POP POP JUMP JUMPDEST PUSH4 0x4E487B71 PUSH1 0xE0 SHL PUSH1 0x0 MSTORE PUSH1 0x32 PUSH1 0x4 MSTORE PUSH1 0x24 PUSH1 0x0 REVERT JUMPDEST PUSH1 0x0 DUP1 DUP4 SLOAD DUP2 PUSH1 0x1 DUP3 DUP2 SHR SWAP2 POP DUP1 DUP4 AND DUP1 PUSH2 0xC42 JUMPI PUSH1 0x7F DUP4 AND SWAP3 POP JUMPDEST PUSH1 0x20 DUP1 DUP5 LT DUP3 SUB PUSH2 0xC61 JUMPI PUSH4 0x4E487B71 PUSH1 0xE0 SHL DUP7 MSTORE PUSH1 0x22 PUSH1 0x4 MSTORE PUSH1 0x24 DUP7 REVERT JUMPDEST DUP2 DUP1 ISZERO PUSH2 0xC75 JUMPI PUSH1 0x1 DUP2 EQ PUSH2 0xC86 JUMPI PUSH2 0xCB3 JUMP JUMPDEST PUSH1 0xFF NOT DUP7 AND DUP10 MSTORE DUP5 DUP10 ADD SWAP7 POP PUSH2 0xCB3 JUMP JUMPDEST PUSH1 0x0 DUP11 DUP2 MSTORE PUSH1 0x20 SWAP1 KECCAK256 PUSH1 0x0 JUMPDEST DUP7 DUP2 LT ISZERO PUSH2 0xCAB JUMPI DUP2 SLOAD DUP12 DUP3 ADD MSTORE SWAP1 DUP6 ADD SWAP1 DUP4 ADD PUSH2 0xC92 JUMP JUMPDEST POP POP DUP5 DUP10 ADD SWAP7 POP JUMPDEST POP SWAP5 SWAP9 SWAP8 POP POP POP POP POP POP POP POP JUMP JUMPDEST PUSH1 0x0 PUSH1 0x1 DUP3 ADD PUSH2 0xCE1 JUMPI PUSH4 0x4E487B71 PUSH1 0xE0 SHL PUSH1 0x0 MSTORE PUSH1 0x11 PUSH1 0x4 MSTORE PUSH1 0x24 PUSH1 0x0 REVERT JUMPDEST POP PUSH1 0x1 ADD SWAP1 JUMP INVALID LOG2 PUSH5 0x6970667358 0x22 SLT KECCAK256 0xC8 CALLVALUE 0x4B CALLDATALOAD STATICCALL 0xA6 SDIV 0xE8 LOG0 DUP12 0xF6 0xA7 0xC4 NUMBER PUSH4 0x4102EB6 GAS CALLCODE MSIZE 0xDC LT 0x4D RETURNDATACOPY KECCAK256 CALLDATACOPY SWAP7 GASLIMIT 0xC9 DUP14 PUSH5 0x736F6C6343 STOP ADDMOD 0xE STOP CALLER ","sha1":"e1d20e762c2aef790050b8c89bb1efd7ae40aa4d","source":"//SPDX-License-Identifier: MIT\n\npragma solidity ^0.8.0;\n\nimport \"@openzeppelin/contracts/access/Ownable.sol\";\n\ncontract Publicupload {\n    struct File {\n        string name;\n        string CID;\n    }\n\n    //mapping (address=>mapping(bytes32=>string)[]) usercid;\n    mapping(address => bytes32) public publickey;\n    mapping(string => string) public checkcid;\n    mapping(address => File[]) public userscid;\n    mapping(address => File[]) public sharedwithuser;\n\n    //getting struct length\n    function getlength() public view returns (uint256) {\n        return userscid[msg.sender].length;\n    }\n\n    //get current user files\n    function getusercid() public view returns (File[] memory) {\n        return userscid[msg.sender];\n    }\n\n    //add file cid and name(if only uploaded by the user alone)\n    function addcid(string memory cids, string memory name) public {\n        checkcid[cids] = name;\n        userscid[msg.sender].push(File(name, cids));\n    }\n\n    //remove any cid if user wants it removed from his file system\n    function removecid(string memory cids) public {\n        uint256 j;\n        for (j = 0; j < userscid[msg.sender].length; j++) {\n            if (\n                keccak256(abi.encodePacked(cids)) ==\n                keccak256(abi.encodePacked(userscid[msg.sender][j].CID))\n            ) {\n                delete userscid[msg.sender][j];\n                break;\n            }\n        }\n    }\n\n    //share file cid with other user, who wants it(add the file name and cid in other user shared with me section)\n    function sharewithother(address user, string memory cids) public {\n        sharedwithuser[user].push(File(checkcid[cids], cids));\n    }\n}\n","sourcePath":"contracts/PublicFileupload.sol","type":"contract","deployment":{"address":"0xCbA78E0b0764313A5aeBf96097Cd94a2B8bB4F6B","chainid":"4","blockHeight":11195411}}